{
	"data": {
		"bytecode": {
			"linkReferences": {},
			"object": "6080604052600980546001600160a01b031990811673a83ad73eed496fcd7adc5f4027cbad818d0075a017909155600a805482167368ea301ecc143c239e354a632fdb6fa1d08da8d9179055600c8054909116734fdc1e3a6c0243a089d80e90d7bd0e060044e267179055663ff2e795f50000600f556101f460105560118054630101001463ffffffff199091161790553480156200009d57600080fd5b50604051620022a7380380620022a7833981016040819052620000c091620001c7565b6040518060400160405280601981526020017f4d3441492f4f474143414920414920636f6c6c656374696f6e00000000000000815250604051806040016040528060088152602001674d344f474143414960c01b81525081600290816200012891906200032b565b5060036200013782826200032b565b5050600080555062000149336200015f565b600e6200015782826200032b565b5050620003f7565b600880546001600160a01b038381166001600160a01b0319831681179093556040519116919082907f8be0079c531659141344cd1fd0a4f28419497f9722a3daafe3b4186f6b6457e090600090a35050565b634e487b7160e01b600052604160045260246000fd5b60006020808385031215620001db57600080fd5b82516001600160401b0380821115620001f357600080fd5b818501915085601f8301126200020857600080fd5b8151818111156200021d576200021d620001b1565b604051601f8201601f19908116603f01168101908382118183101715620002485762000248620001b1565b8160405282815288868487010111156200026157600080fd5b600093505b8284101562000285578484018601518185018701529285019262000266565b600086848301015280965050505050505092915050565b600181811c90821680620002b157607f821691505b602082108103620002d257634e487b7160e01b600052602260045260246000fd5b50919050565b601f8211156200032657600081815260208120601f850160051c81016020861015620003015750805b601f850160051c820191505b8181101562000322578281556001016200030d565b5050505b505050565b81516001600160401b03811115620003475762000347620001b1565b6200035f816200035884546200029c565b84620002d8565b602080601f8311600181146200039757600084156200037e5750858301515b600019600386901b1c1916600185901b17855562000322565b600085815260208120601f198616915b82811015620003c857888601518255948401946001909101908401620003a7565b5085821015620003e75787850151600019600388901b60f8161c191681555b5050505050600190811b01905550565b611ea080620004076000396000f3fe60806040526004361061020f5760003560e01c8063715018a611610118578063c38bb537116100a0578063dc33e6811161006f578063dc33e681146105b6578063e97800cb146105d6578063e985e9c5146105f6578063f2fde38b14610616578063f4da18461461063657600080fd5b8063c38bb53714610540578063c87b56dd14610560578063d5abeb0114610580578063d897833e1461059657600080fd5b806399755624116100e757806399755624146104ac578063a0712d68146104cc578063a22cb465146104df578063b88d4fde146104ff578063bbb897441461051257600080fd5b8063715018a614610443578063773ef1cf146104585780638da5cb5b1461047957806395d89b411461049757600080fd5b806342842e0e1161019b5780635b2a55e41161016a5780635b2a55e4146103a35780635c975abb146103c35780636352211e146103e35780636f8b44b01461040357806370a082311461042357600080fd5b806342842e0e1461033d57806344a0d68a1461035057806355f804b31461037057806358891a371461039057600080fd5b806309e7fe1b116101e257806309e7fe1b146102b857806313faede6146102d857806318160ddd146102fc57806323b872dd1461031557806341827f131461032857600080fd5b806301ffc9a71461021457806306fdde0314610249578063081812fc1461026b578063095ea7b3146102a3575b600080fd5b34801561022057600080fd5b5061023461022f366004611841565b610656565b60405190151581526020015b60405180910390f35b34801561025557600080fd5b5061025e6106a8565b60405161024091906118ae565b34801561027757600080fd5b5061028b6102863660046118c1565b61073a565b6040516001600160a01b039091168152602001610240565b6102b66102b13660046118f1565b610775565b005b3480156102c457600080fd5b506102b66102d336600461191b565b610785565b3480156102e457600080fd5b506102ee600f5481565b604051908152602001610240565b34801561030857600080fd5b50600154600054036102ee565b6102b6610323366004611936565b6107af565b34801561033457600080fd5b5061025e610914565b6102b661034b366004611936565b6109a2565b34801561035c57600080fd5b506102b661036b3660046118c1565b6109c2565b34801561037c57600080fd5b506102b661038b3660046119fe565b6109cf565b6102b661039e3660046118f1565b6109e3565b3480156103af57600080fd5b50600d5461028b906001600160a01b031681565b3480156103cf57600080fd5b506011546102349062010000900460ff1681565b3480156103ef57600080fd5b5061028b6103fe3660046118c1565b610c64565b34801561040f57600080fd5b506102b661041e3660046118c1565b610c6f565b34801561042f57600080fd5b506102ee61043e36600461191b565b610c7c565b34801561044f57600080fd5b506102b6610cc2565b34801561046457600080fd5b50601154610234906301000000900460ff1681565b34801561048557600080fd5b506008546001600160a01b031661028b565b3480156104a357600080fd5b5061025e610cd6565b3480156104b857600080fd5b506102b66104c736600461191b565b610ce5565b6102b66104da3660046118c1565b610d0f565b3480156104eb57600080fd5b506102b66104fa366004611a57565b610f83565b6102b661050d366004611a8a565b610fef565b34801561051e57600080fd5b5060115461052d9061ffff1681565b60405161ffff9091168152602001610240565b34801561054c57600080fd5b506102b661055b366004611b06565b611030565b34801561056c57600080fd5b5061025e61057b3660046118c1565b611054565b34801561058c57600080fd5b506102ee60105481565b3480156105a257600080fd5b506102b66105b1366004611b06565b61111f565b3480156105c257600080fd5b506102ee6105d136600461191b565b611145565b3480156105e257600080fd5b506102b66105f1366004611b21565b611170565b34801561060257600080fd5b50610234610611366004611b45565b611190565b34801561062257600080fd5b506102b661063136600461191b565b6111be565b34801561064257600080fd5b506102b66106513660046118f1565b611234565b60006301ffc9a760e01b6001600160e01b03198316148061068757506380ac58cd60e01b6001600160e01b03198316145b806106a25750635b5e139f60e01b6001600160e01b03198316145b92915050565b6060600280546106b790611b6f565b80601f01602080910402602001604051908101604052809291908181526020018280546106e390611b6f565b80156107305780601f1061070557610100808354040283529160200191610730565b820191906000526020600020905b81548152906001019060200180831161071357829003601f168201915b5050505050905090565b60006107458261129d565b610759576107596333d1c03960e21b6112c4565b506000908152600660205260409020546001600160a01b031690565b610781828260016112ce565b5050565b61078d611371565b600b80546001600160a01b0319166001600160a01b0392909216919091179055565b60006107ba826113cb565b6001600160a01b0394851694909150811684146107e0576107e062a1148160e81b6112c4565b60008281526006602052604090208054338082146001600160a01b03881690911417610824576108108633611190565b61082457610824632ce44b5f60e11b6112c4565b801561082f57600082555b6001600160a01b038681166000908152600560205260408082208054600019019055918716808252919020805460010190554260a01b17600160e11b17600085815260046020526040812091909155600160e11b841690036108c1576001840160008181526004602052604081205490036108bf5760005481146108bf5760008181526004602052604090208490555b505b6001600160a01b0385168481887fddf252ad1be2c89b69c2b068fc378daa952ba7f163c4a11628f55a4df523b3ef600080a48060000361090b5761090b633a954ecd60e21b6112c4565b50505050505050565b600e805461092190611b6f565b80601f016020809104026020016040519081016040528092919081815260200182805461094d90611b6f565b801561099a5780601f1061096f5761010080835404028352916020019161099a565b820191906000526020600020905b81548152906001019060200180831161097d57829003601f168201915b505050505081565b6109bd83838360405180602001604052806000815250610fef565b505050565b6109ca611371565b600f55565b6109d7611371565b600e6107818282611bf7565b60115462010000900460ff1615610afc576009546040516370a0823160e01b81523360048201526000916001600160a01b0316906370a0823190602401602060405180830381865afa158015610a3d573d6000803e3d6000fd5b505050506040513d601f19601f82011682018060405250810190610a619190611cb7565b1180610ad75750600a546040516370a0823160e01b81523360048201526000916001600160a01b0316906370a0823190602401602060405180830381865afa158015610ab1573d6000803e3d6000fd5b505050506040513d601f19601f82011682018060405250810190610ad59190611cb7565b115b610afc5760405162461bcd60e51b8152600401610af390611cd0565b60405180910390fd5b60008111610b1c5760405162461bcd60e51b8152600401610af390611d16565b60115461ffff16811115610b425760405162461bcd60e51b8152600401610af390611d5a565b60105481610b536001546000540390565b610b5d9190611db7565b1115610ba05760405162461bcd60e51b815260206004820152601260248201527145786365656473204d617820537570706c7960701b6044820152606401610af3565b80600f54610bae9190611dca565b341015610bf45760405162461bcd60e51b8152602060048201526014602482015273125b98dbdc9c9958dd081d985b1d59481cd95b9d60621b6044820152606401610af3565b600d546001600160a01b03163314610c5a5760405162461bcd60e51b8152602060048201526024808201527f546869732066756e6374696f6e20697320666f722043726f73736d696e74206f60448201526337363c9760e11b6064820152608401610af3565b610781828261143a565b60006106a2826113cb565b610c77611371565b601055565b60006001600160a01b038216610c9c57610c9c6323d3ad8160e21b6112c4565b506001600160a01b031660009081526005602052604090205467ffffffffffffffff1690565b610cca611371565b610cd46000611454565b565b6060600380546106b790611b6f565b610ced611371565b600d80546001600160a01b0319166001600160a01b0392909216919091179055565b6008546001600160a01b03163314610f765760115462010000900460ff1615610e31576009546040516370a0823160e01b81523360048201526000916001600160a01b0316906370a0823190602401602060405180830381865afa158015610d7b573d6000803e3d6000fd5b505050506040513d601f19601f82011682018060405250810190610d9f9190611cb7565b1180610e155750600a546040516370a0823160e01b81523360048201526000916001600160a01b0316906370a0823190602401602060405180830381865afa158015610def573d6000803e3d6000fd5b505050506040513d601f19601f82011682018060405250810190610e139190611cb7565b115b610e315760405162461bcd60e51b8152600401610af390611cd0565b6011546301000000900460ff16610e825760405162461bcd60e51b815260206004820152601560248201527429b0b632902430b9902737ba1029ba30b93a32b21760591b6044820152606401610af3565b60008111610ea25760405162461bcd60e51b8152600401610af390611d16565b60115461ffff16811115610ec85760405162461bcd60e51b8152600401610af390611d5a565b60105481610ed96001546000540390565b610ee39190611db7565b1115610f265760405162461bcd60e51b815260206004820152601260248201527145786365656473204d617820537570706c7960701b6044820152606401610af3565b80600f54610f349190611dca565b341015610f765760405162461bcd60e51b815260206004820152601060248201526f496e7375666669656e742066756e647360801b6044820152606401610af3565b610f80338261143a565b50565b3360008181526007602090815260408083206001600160a01b03871680855290835292819020805460ff191686151590811790915590519081529192917f17307eab39ab6107e8899845ad3d59bd9653f200f220920489ca2b5937696c31910160405180910390a35050565b610ffa8484846107af565b6001600160a01b0383163b1561102a57611016848484846114a6565b61102a5761102a6368d2bf6b60e11b6112c4565b50505050565b611038611371565b60118054911515620100000262ff000019909216919091179055565b606061105f8261129d565b6110c35760405162461bcd60e51b815260206004820152602f60248201527f4552433732314d657461646174613a2055524920717565727920666f72206e6f60448201526e3732bc34b9ba32b73a103a37b5b2b760891b6064820152608401610af3565b60006110cd611589565b905060008151116110ed5760405180602001604052806000815250611118565b806110f784611598565b604051602001611108929190611de1565b6040516020818303038152906040525b9392505050565b611127611371565b6011805491151563010000000263ff00000019909216919091179055565b6001600160a01b0381166000908152600560205260408082205467ffffffffffffffff911c166106a2565b611178611371565b6011805461ffff191661ffff92909216919091179055565b6001600160a01b03918216600090815260076020908152604080832093909416825291909152205460ff1690565b6111c6611371565b6001600160a01b03811661122b5760405162461bcd60e51b815260206004820152602660248201527f4f776e61626c653a206e6577206f776e657220697320746865207a65726f206160448201526564647265737360d01b6064820152608401610af3565b610f8081611454565b600b546001600160a01b03163314610c5a5760405162461bcd60e51b815260206004820152602660248201527f536f72727920796f7520646f6e742068617665207065726d697373696f6e20746044820152651bc81b5a5b9d60d21b6064820152608401610af3565b60008054821080156106a2575050600090815260046020526040902054600160e01b161590565b8060005260046000fd5b60006112d983610c64565b90508180156112f15750336001600160a01b03821614155b15611314576113008133611190565b611314576113146367d9dca160e11b6112c4565b60008381526006602052604080822080546001600160a01b0319166001600160a01b0388811691821790925591518693918516917f8c5be1e5ebec7d5bd14f71427d1e84f3dd0314c0f7b2291e5b200ac8c7c3b92591a450505050565b6008546001600160a01b03163314610cd45760405162461bcd60e51b815260206004820181905260248201527f4f776e61626c653a2063616c6c6572206973206e6f7420746865206f776e65726044820152606401610af3565b60008181526004602052604081205490600160e01b8216900361142a578060000361142557600054821061140957611409636f96cda160e11b6112c4565b5b5060001901600081815260046020526040902054801561140a575b919050565b611425636f96cda160e11b6112c4565b61078182826040518060200160405280600081525061162b565b600880546001600160a01b038381166001600160a01b0319831681179093556040519116919082907f8be0079c531659141344cd1fd0a4f28419497f9722a3daafe3b4186f6b6457e090600090a35050565b604051630a85bd0160e11b81526000906001600160a01b0385169063150b7a02906114db903390899088908890600401611e10565b6020604051808303816000875af1925050508015611516575060408051601f3d908101601f1916820190925261151391810190611e4d565b60015b61156b573d808015611544576040519150601f19603f3d011682016040523d82523d6000602084013e611549565b606091505b508051600003611563576115636368d2bf6b60e11b6112c4565b805181602001fd5b6001600160e01b031916630a85bd0160e11b1490505b949350505050565b6060600e80546106b790611b6f565b606060006115a583611694565b600101905060008167ffffffffffffffff8111156115c5576115c5611972565b6040519080825280601f01601f1916602001820160405280156115ef576020820181803683370190505b5090508181016020015b600019016f181899199a1a9b1b9c1cb0b131b232b360811b600a86061a8153600a85049450846115f957509392505050565b611635838361176c565b6001600160a01b0383163b156109bd576000548281035b61165f60008683806001019450866114a6565b611673576116736368d2bf6b60e11b6112c4565b81811061164c57816000541461168d5761168d60006112c4565b5050505050565b60008072184f03e93ff9f4daa797ed6e38ed64bf6a1f0160401b83106116d35772184f03e93ff9f4daa797ed6e38ed64bf6a1f0160401b830492506040015b6d04ee2d6d415b85acef810000000083106116ff576d04ee2d6d415b85acef8100000000830492506020015b662386f26fc10000831061171d57662386f26fc10000830492506010015b6305f5e1008310611735576305f5e100830492506008015b612710831061174957612710830492506004015b6064831061175b576064830492506002015b600a83106106a25760010192915050565b60008054908290036117885761178863b562e8dd60e01b6112c4565b60008181526004602090815260408083206001600160a01b0387164260a01b6001881460e11b178117909155808452600590925282208054680100000000000000018602019055908190036117e6576117e6622e076360e81b6112c4565b818301825b808360007fddf252ad1be2c89b69c2b068fc378daa952ba7f163c4a11628f55a4df523b3ef600080a48181600101915081036117eb575060005550505050565b6001600160e01b031981168114610f8057600080fd5b60006020828403121561185357600080fd5b81356111188161182b565b60005b83811015611879578181015183820152602001611861565b50506000910152565b6000815180845261189a81602086016020860161185e565b601f01601f19169290920160200192915050565b6020815260006111186020830184611882565b6000602082840312156118d357600080fd5b5035919050565b80356001600160a01b038116811461142557600080fd5b6000806040838503121561190457600080fd5b61190d836118da565b946020939093013593505050565b60006020828403121561192d57600080fd5b611118826118da565b60008060006060848603121561194b57600080fd5b611954846118da565b9250611962602085016118da565b9150604084013590509250925092565b634e487b7160e01b600052604160045260246000fd5b600067ffffffffffffffff808411156119a3576119a3611972565b604051601f8501601f19908116603f011681019082821181831017156119cb576119cb611972565b816040528093508581528686860111156119e457600080fd5b858560208301376000602087830101525050509392505050565b600060208284031215611a1057600080fd5b813567ffffffffffffffff811115611a2757600080fd5b8201601f81018413611a3857600080fd5b61158184823560208401611988565b8035801515811461142557600080fd5b60008060408385031215611a6a57600080fd5b611a73836118da565b9150611a8160208401611a47565b90509250929050565b60008060008060808587031215611aa057600080fd5b611aa9856118da565b9350611ab7602086016118da565b925060408501359150606085013567ffffffffffffffff811115611ada57600080fd5b8501601f81018713611aeb57600080fd5b611afa87823560208401611988565b91505092959194509250565b600060208284031215611b1857600080fd5b61111882611a47565b600060208284031215611b3357600080fd5b813561ffff8116811461111857600080fd5b60008060408385031215611b5857600080fd5b611b61836118da565b9150611a81602084016118da565b600181811c90821680611b8357607f821691505b602082108103611ba357634e487b7160e01b600052602260045260246000fd5b50919050565b601f8211156109bd57600081815260208120601f850160051c81016020861015611bd05750805b601f850160051c820191505b81811015611bef57828155600101611bdc565b505050505050565b815167ffffffffffffffff811115611c1157611c11611972565b611c2581611c1f8454611b6f565b84611ba9565b602080601f831160018114611c5a5760008415611c425750858301515b600019600386901b1c1916600185901b178555611bef565b600085815260208120601f198616915b82811015611c8957888601518255948401946001909101908401611c6a565b5085821015611ca75787850151600019600388901b60f8161c191681555b5050505050600190811b01905550565b600060208284031215611cc957600080fd5b5051919050565b60208082526026908201527f4f6e6c79204d3420616e64204f47414320486f6c64657273204d6179204d696e6040820152653a102737bb9760d11b606082015260800190565b60208082526024908201527f4d696e7420616d6f756e742073686f756c6420626520677265617465722074686040820152630616e20360e41b606082015260800190565b60208082526027908201527f536f72727920796f752063616e74206d696e74207468697320616d6f756e74206040820152666174206f6e636560c81b606082015260800190565b634e487b7160e01b600052601160045260246000fd5b808201808211156106a2576106a2611da1565b80820281158282048414176106a2576106a2611da1565b60008351611df381846020880161185e565b835190830190611e0781836020880161185e565b01949350505050565b6001600160a01b0385811682528416602082015260408101839052608060608201819052600090611e4390830184611882565b9695505050505050565b600060208284031215611e5f57600080fd5b81516111188161182b56fea264697066735822122067d74eb36cac6cae1ed7e998678198ad7be709722bb3e36e0ac1969c7a0440a864736f6c63430008120033",
			"opcodes": "PUSH1 0x80 PUSH1 0x40 MSTORE PUSH1 0x9 DUP1 SLOAD PUSH1 0x1 PUSH1 0x1 PUSH1 0xA0 SHL SUB NOT SWAP1 DUP2 AND PUSH20 0xA83AD73EED496FCD7ADC5F4027CBAD818D0075A0 OR SWAP1 SWAP2 SSTORE PUSH1 0xA DUP1 SLOAD DUP3 AND PUSH20 0x68EA301ECC143C239E354A632FDB6FA1D08DA8D9 OR SWAP1 SSTORE PUSH1 0xC DUP1 SLOAD SWAP1 SWAP2 AND PUSH20 0x4FDC1E3A6C0243A089D80E90D7BD0E060044E267 OR SWAP1 SSTORE PUSH7 0x3FF2E795F50000 PUSH1 0xF SSTORE PUSH2 0x1F4 PUSH1 0x10 SSTORE PUSH1 0x11 DUP1 SLOAD PUSH4 0x1010014 PUSH4 0xFFFFFFFF NOT SWAP1 SWAP2 AND OR SWAP1 SSTORE CALLVALUE DUP1 ISZERO PUSH3 0x9D JUMPI PUSH1 0x0 DUP1 REVERT JUMPDEST POP PUSH1 0x40 MLOAD PUSH3 0x22A7 CODESIZE SUB DUP1 PUSH3 0x22A7 DUP4 CODECOPY DUP2 ADD PUSH1 0x40 DUP2 SWAP1 MSTORE PUSH3 0xC0 SWAP2 PUSH3 0x1C7 JUMP JUMPDEST PUSH1 0x40 MLOAD DUP1 PUSH1 0x40 ADD PUSH1 0x40 MSTORE DUP1 PUSH1 0x19 DUP2 MSTORE PUSH1 0x20 ADD PUSH32 0x4D3441492F4F474143414920414920636F6C6C656374696F6E00000000000000 DUP2 MSTORE POP PUSH1 0x40 MLOAD DUP1 PUSH1 0x40 ADD PUSH1 0x40 MSTORE DUP1 PUSH1 0x8 DUP2 MSTORE PUSH1 0x20 ADD PUSH8 0x4D344F4741434149 PUSH1 0xC0 SHL DUP2 MSTORE POP DUP2 PUSH1 0x2 SWAP1 DUP2 PUSH3 0x128 SWAP2 SWAP1 PUSH3 0x32B JUMP JUMPDEST POP PUSH1 0x3 PUSH3 0x137 DUP3 DUP3 PUSH3 0x32B JUMP JUMPDEST POP POP PUSH1 0x0 DUP1 SSTORE POP PUSH3 0x149 CALLER PUSH3 0x15F JUMP JUMPDEST PUSH1 0xE PUSH3 0x157 DUP3 DUP3 PUSH3 0x32B JUMP JUMPDEST POP POP PUSH3 0x3F7 JUMP JUMPDEST PUSH1 0x8 DUP1 SLOAD PUSH1 0x1 PUSH1 0x1 PUSH1 0xA0 SHL SUB DUP4 DUP2 AND PUSH1 0x1 PUSH1 0x1 PUSH1 0xA0 SHL SUB NOT DUP4 AND DUP2 OR SWAP1 SWAP4 SSTORE PUSH1 0x40 MLOAD SWAP2 AND SWAP2 SWAP1 DUP3 SWAP1 PUSH32 0x8BE0079C531659141344CD1FD0A4F28419497F9722A3DAAFE3B4186F6B6457E0 SWAP1 PUSH1 0x0 SWAP1 LOG3 POP POP JUMP JUMPDEST PUSH4 0x4E487B71 PUSH1 0xE0 SHL PUSH1 0x0 MSTORE PUSH1 0x41 PUSH1 0x4 MSTORE PUSH1 0x24 PUSH1 0x0 REVERT JUMPDEST PUSH1 0x0 PUSH1 0x20 DUP1 DUP4 DUP6 SUB SLT ISZERO PUSH3 0x1DB JUMPI PUSH1 0x0 DUP1 REVERT JUMPDEST DUP3 MLOAD PUSH1 0x1 PUSH1 0x1 PUSH1 0x40 SHL SUB DUP1 DUP3 GT ISZERO PUSH3 0x1F3 JUMPI PUSH1 0x0 DUP1 REVERT JUMPDEST DUP2 DUP6 ADD SWAP2 POP DUP6 PUSH1 0x1F DUP4 ADD SLT PUSH3 0x208 JUMPI PUSH1 0x0 DUP1 REVERT JUMPDEST DUP2 MLOAD DUP2 DUP2 GT ISZERO PUSH3 0x21D JUMPI PUSH3 0x21D PUSH3 0x1B1 JUMP JUMPDEST PUSH1 0x40 MLOAD PUSH1 0x1F DUP3 ADD PUSH1 0x1F NOT SWAP1 DUP2 AND PUSH1 0x3F ADD AND DUP2 ADD SWAP1 DUP4 DUP3 GT DUP2 DUP4 LT OR ISZERO PUSH3 0x248 JUMPI PUSH3 0x248 PUSH3 0x1B1 JUMP JUMPDEST DUP2 PUSH1 0x40 MSTORE DUP3 DUP2 MSTORE DUP9 DUP7 DUP5 DUP8 ADD ADD GT ISZERO PUSH3 0x261 JUMPI PUSH1 0x0 DUP1 REVERT JUMPDEST PUSH1 0x0 SWAP4 POP JUMPDEST DUP3 DUP5 LT ISZERO PUSH3 0x285 JUMPI DUP5 DUP5 ADD DUP7 ADD MLOAD DUP2 DUP6 ADD DUP8 ADD MSTORE SWAP3 DUP6 ADD SWAP3 PUSH3 0x266 JUMP JUMPDEST PUSH1 0x0 DUP7 DUP5 DUP4 ADD ADD MSTORE DUP1 SWAP7 POP POP POP POP POP POP POP SWAP3 SWAP2 POP POP JUMP JUMPDEST PUSH1 0x1 DUP2 DUP2 SHR SWAP1 DUP3 AND DUP1 PUSH3 0x2B1 JUMPI PUSH1 0x7F DUP3 AND SWAP2 POP JUMPDEST PUSH1 0x20 DUP3 LT DUP2 SUB PUSH3 0x2D2 JUMPI PUSH4 0x4E487B71 PUSH1 0xE0 SHL PUSH1 0x0 MSTORE PUSH1 0x22 PUSH1 0x4 MSTORE PUSH1 0x24 PUSH1 0x0 REVERT JUMPDEST POP SWAP2 SWAP1 POP JUMP JUMPDEST PUSH1 0x1F DUP3 GT ISZERO PUSH3 0x326 JUMPI PUSH1 0x0 DUP2 DUP2 MSTORE PUSH1 0x20 DUP2 KECCAK256 PUSH1 0x1F DUP6 ADD PUSH1 0x5 SHR DUP2 ADD PUSH1 0x20 DUP7 LT ISZERO PUSH3 0x301 JUMPI POP DUP1 JUMPDEST PUSH1 0x1F DUP6 ADD PUSH1 0x5 SHR DUP3 ADD SWAP2 POP JUMPDEST DUP2 DUP2 LT ISZERO PUSH3 0x322 JUMPI DUP3 DUP2 SSTORE PUSH1 0x1 ADD PUSH3 0x30D JUMP JUMPDEST POP POP POP JUMPDEST POP POP POP JUMP JUMPDEST DUP2 MLOAD PUSH1 0x1 PUSH1 0x1 PUSH1 0x40 SHL SUB DUP2 GT ISZERO PUSH3 0x347 JUMPI PUSH3 0x347 PUSH3 0x1B1 JUMP JUMPDEST PUSH3 0x35F DUP2 PUSH3 0x358 DUP5 SLOAD PUSH3 0x29C JUMP JUMPDEST DUP5 PUSH3 0x2D8 JUMP JUMPDEST PUSH1 0x20 DUP1 PUSH1 0x1F DUP4 GT PUSH1 0x1 DUP2 EQ PUSH3 0x397 JUMPI PUSH1 0x0 DUP5 ISZERO PUSH3 0x37E JUMPI POP DUP6 DUP4 ADD MLOAD JUMPDEST PUSH1 0x0 NOT PUSH1 0x3 DUP7 SWAP1 SHL SHR NOT AND PUSH1 0x1 DUP6 SWAP1 SHL OR DUP6 SSTORE PUSH3 0x322 JUMP JUMPDEST PUSH1 0x0 DUP6 DUP2 MSTORE PUSH1 0x20 DUP2 KECCAK256 PUSH1 0x1F NOT DUP7 AND SWAP2 JUMPDEST DUP3 DUP2 LT ISZERO PUSH3 0x3C8 JUMPI DUP9 DUP7 ADD MLOAD DUP3 SSTORE SWAP5 DUP5 ADD SWAP5 PUSH1 0x1 SWAP1 SWAP2 ADD SWAP1 DUP5 ADD PUSH3 0x3A7 JUMP JUMPDEST POP DUP6 DUP3 LT ISZERO PUSH3 0x3E7 JUMPI DUP8 DUP6 ADD MLOAD PUSH1 0x0 NOT PUSH1 0x3 DUP9 SWAP1 SHL PUSH1 0xF8 AND SHR NOT AND DUP2 SSTORE JUMPDEST POP POP POP POP POP PUSH1 0x1 SWAP1 DUP2 SHL ADD SWAP1 SSTORE POP JUMP JUMPDEST PUSH2 0x1EA0 DUP1 PUSH3 0x407 PUSH1 0x0 CODECOPY PUSH1 0x0 RETURN INVALID PUSH1 0x80 PUSH1 0x40 MSTORE PUSH1 0x4 CALLDATASIZE LT PUSH2 0x20F JUMPI PUSH1 0x0 CALLDATALOAD PUSH1 0xE0 SHR DUP1 PUSH4 0x715018A6 GT PUSH2 0x118 JUMPI DUP1 PUSH4 0xC38BB537 GT PUSH2 0xA0 JUMPI DUP1 PUSH4 0xDC33E681 GT PUSH2 0x6F JUMPI DUP1 PUSH4 0xDC33E681 EQ PUSH2 0x5B6 JUMPI DUP1 PUSH4 0xE97800CB EQ PUSH2 0x5D6 JUMPI DUP1 PUSH4 0xE985E9C5 EQ PUSH2 0x5F6 JUMPI DUP1 PUSH4 0xF2FDE38B EQ PUSH2 0x616 JUMPI DUP1 PUSH4 0xF4DA1846 EQ PUSH2 0x636 JUMPI PUSH1 0x0 DUP1 REVERT JUMPDEST DUP1 PUSH4 0xC38BB537 EQ PUSH2 0x540 JUMPI DUP1 PUSH4 0xC87B56DD EQ PUSH2 0x560 JUMPI DUP1 PUSH4 0xD5ABEB01 EQ PUSH2 0x580 JUMPI DUP1 PUSH4 0xD897833E EQ PUSH2 0x596 JUMPI PUSH1 0x0 DUP1 REVERT JUMPDEST DUP1 PUSH4 0x99755624 GT PUSH2 0xE7 JUMPI DUP1 PUSH4 0x99755624 EQ PUSH2 0x4AC JUMPI DUP1 PUSH4 0xA0712D68 EQ PUSH2 0x4CC JUMPI DUP1 PUSH4 0xA22CB465 EQ PUSH2 0x4DF JUMPI DUP1 PUSH4 0xB88D4FDE EQ PUSH2 0x4FF JUMPI DUP1 PUSH4 0xBBB89744 EQ PUSH2 0x512 JUMPI PUSH1 0x0 DUP1 REVERT JUMPDEST DUP1 PUSH4 0x715018A6 EQ PUSH2 0x443 JUMPI DUP1 PUSH4 0x773EF1CF EQ PUSH2 0x458 JUMPI DUP1 PUSH4 0x8DA5CB5B EQ PUSH2 0x479 JUMPI DUP1 PUSH4 0x95D89B41 EQ PUSH2 0x497 JUMPI PUSH1 0x0 DUP1 REVERT JUMPDEST DUP1 PUSH4 0x42842E0E GT PUSH2 0x19B JUMPI DUP1 PUSH4 0x5B2A55E4 GT PUSH2 0x16A JUMPI DUP1 PUSH4 0x5B2A55E4 EQ PUSH2 0x3A3 JUMPI DUP1 PUSH4 0x5C975ABB EQ PUSH2 0x3C3 JUMPI DUP1 PUSH4 0x6352211E EQ PUSH2 0x3E3 JUMPI DUP1 PUSH4 0x6F8B44B0 EQ PUSH2 0x403 JUMPI DUP1 PUSH4 0x70A08231 EQ PUSH2 0x423 JUMPI PUSH1 0x0 DUP1 REVERT JUMPDEST DUP1 PUSH4 0x42842E0E EQ PUSH2 0x33D JUMPI DUP1 PUSH4 0x44A0D68A EQ PUSH2 0x350 JUMPI DUP1 PUSH4 0x55F804B3 EQ PUSH2 0x370 JUMPI DUP1 PUSH4 0x58891A37 EQ PUSH2 0x390 JUMPI PUSH1 0x0 DUP1 REVERT JUMPDEST DUP1 PUSH4 0x9E7FE1B GT PUSH2 0x1E2 JUMPI DUP1 PUSH4 0x9E7FE1B EQ PUSH2 0x2B8 JUMPI DUP1 PUSH4 0x13FAEDE6 EQ PUSH2 0x2D8 JUMPI DUP1 PUSH4 0x18160DDD EQ PUSH2 0x2FC JUMPI DUP1 PUSH4 0x23B872DD EQ PUSH2 0x315 JUMPI DUP1 PUSH4 0x41827F13 EQ PUSH2 0x328 JUMPI PUSH1 0x0 DUP1 REVERT JUMPDEST DUP1 PUSH4 0x1FFC9A7 EQ PUSH2 0x214 JUMPI DUP1 PUSH4 0x6FDDE03 EQ PUSH2 0x249 JUMPI DUP1 PUSH4 0x81812FC EQ PUSH2 0x26B JUMPI DUP1 PUSH4 0x95EA7B3 EQ PUSH2 0x2A3 JUMPI JUMPDEST PUSH1 0x0 DUP1 REVERT JUMPDEST CALLVALUE DUP1 ISZERO PUSH2 0x220 JUMPI PUSH1 0x0 DUP1 REVERT JUMPDEST POP PUSH2 0x234 PUSH2 0x22F CALLDATASIZE PUSH1 0x4 PUSH2 0x1841 JUMP JUMPDEST PUSH2 0x656 JUMP JUMPDEST PUSH1 0x40 MLOAD SWAP1 ISZERO ISZERO DUP2 MSTORE PUSH1 0x20 ADD JUMPDEST PUSH1 0x40 MLOAD DUP1 SWAP2 SUB SWAP1 RETURN JUMPDEST CALLVALUE DUP1 ISZERO PUSH2 0x255 JUMPI PUSH1 0x0 DUP1 REVERT JUMPDEST POP PUSH2 0x25E PUSH2 0x6A8 JUMP JUMPDEST PUSH1 0x40 MLOAD PUSH2 0x240 SWAP2 SWAP1 PUSH2 0x18AE JUMP JUMPDEST CALLVALUE DUP1 ISZERO PUSH2 0x277 JUMPI PUSH1 0x0 DUP1 REVERT JUMPDEST POP PUSH2 0x28B PUSH2 0x286 CALLDATASIZE PUSH1 0x4 PUSH2 0x18C1 JUMP JUMPDEST PUSH2 0x73A JUMP JUMPDEST PUSH1 0x40 MLOAD PUSH1 0x1 PUSH1 0x1 PUSH1 0xA0 SHL SUB SWAP1 SWAP2 AND DUP2 MSTORE PUSH1 0x20 ADD PUSH2 0x240 JUMP JUMPDEST PUSH2 0x2B6 PUSH2 0x2B1 CALLDATASIZE PUSH1 0x4 PUSH2 0x18F1 JUMP JUMPDEST PUSH2 0x775 JUMP JUMPDEST STOP JUMPDEST CALLVALUE DUP1 ISZERO PUSH2 0x2C4 JUMPI PUSH1 0x0 DUP1 REVERT JUMPDEST POP PUSH2 0x2B6 PUSH2 0x2D3 CALLDATASIZE PUSH1 0x4 PUSH2 0x191B JUMP JUMPDEST PUSH2 0x785 JUMP JUMPDEST CALLVALUE DUP1 ISZERO PUSH2 0x2E4 JUMPI PUSH1 0x0 DUP1 REVERT JUMPDEST POP PUSH2 0x2EE PUSH1 0xF SLOAD DUP2 JUMP JUMPDEST PUSH1 0x40 MLOAD SWAP1 DUP2 MSTORE PUSH1 0x20 ADD PUSH2 0x240 JUMP JUMPDEST CALLVALUE DUP1 ISZERO PUSH2 0x308 JUMPI PUSH1 0x0 DUP1 REVERT JUMPDEST POP PUSH1 0x1 SLOAD PUSH1 0x0 SLOAD SUB PUSH2 0x2EE JUMP JUMPDEST PUSH2 0x2B6 PUSH2 0x323 CALLDATASIZE PUSH1 0x4 PUSH2 0x1936 JUMP JUMPDEST PUSH2 0x7AF JUMP JUMPDEST CALLVALUE DUP1 ISZERO PUSH2 0x334 JUMPI PUSH1 0x0 DUP1 REVERT JUMPDEST POP PUSH2 0x25E PUSH2 0x914 JUMP JUMPDEST PUSH2 0x2B6 PUSH2 0x34B CALLDATASIZE PUSH1 0x4 PUSH2 0x1936 JUMP JUMPDEST PUSH2 0x9A2 JUMP JUMPDEST CALLVALUE DUP1 ISZERO PUSH2 0x35C JUMPI PUSH1 0x0 DUP1 REVERT JUMPDEST POP PUSH2 0x2B6 PUSH2 0x36B CALLDATASIZE PUSH1 0x4 PUSH2 0x18C1 JUMP JUMPDEST PUSH2 0x9C2 JUMP JUMPDEST CALLVALUE DUP1 ISZERO PUSH2 0x37C JUMPI PUSH1 0x0 DUP1 REVERT JUMPDEST POP PUSH2 0x2B6 PUSH2 0x38B CALLDATASIZE PUSH1 0x4 PUSH2 0x19FE JUMP JUMPDEST PUSH2 0x9CF JUMP JUMPDEST PUSH2 0x2B6 PUSH2 0x39E CALLDATASIZE PUSH1 0x4 PUSH2 0x18F1 JUMP JUMPDEST PUSH2 0x9E3 JUMP JUMPDEST CALLVALUE DUP1 ISZERO PUSH2 0x3AF JUMPI PUSH1 0x0 DUP1 REVERT JUMPDEST POP PUSH1 0xD SLOAD PUSH2 0x28B SWAP1 PUSH1 0x1 PUSH1 0x1 PUSH1 0xA0 SHL SUB AND DUP2 JUMP JUMPDEST CALLVALUE DUP1 ISZERO PUSH2 0x3CF JUMPI PUSH1 0x0 DUP1 REVERT JUMPDEST POP PUSH1 0x11 SLOAD PUSH2 0x234 SWAP1 PUSH3 0x10000 SWAP1 DIV PUSH1 0xFF AND DUP2 JUMP JUMPDEST CALLVALUE DUP1 ISZERO PUSH2 0x3EF JUMPI PUSH1 0x0 DUP1 REVERT JUMPDEST POP PUSH2 0x28B PUSH2 0x3FE CALLDATASIZE PUSH1 0x4 PUSH2 0x18C1 JUMP JUMPDEST PUSH2 0xC64 JUMP JUMPDEST CALLVALUE DUP1 ISZERO PUSH2 0x40F JUMPI PUSH1 0x0 DUP1 REVERT JUMPDEST POP PUSH2 0x2B6 PUSH2 0x41E CALLDATASIZE PUSH1 0x4 PUSH2 0x18C1 JUMP JUMPDEST PUSH2 0xC6F JUMP JUMPDEST CALLVALUE DUP1 ISZERO PUSH2 0x42F JUMPI PUSH1 0x0 DUP1 REVERT JUMPDEST POP PUSH2 0x2EE PUSH2 0x43E CALLDATASIZE PUSH1 0x4 PUSH2 0x191B JUMP JUMPDEST PUSH2 0xC7C JUMP JUMPDEST CALLVALUE DUP1 ISZERO PUSH2 0x44F JUMPI PUSH1 0x0 DUP1 REVERT JUMPDEST POP PUSH2 0x2B6 PUSH2 0xCC2 JUMP JUMPDEST CALLVALUE DUP1 ISZERO PUSH2 0x464 JUMPI PUSH1 0x0 DUP1 REVERT JUMPDEST POP PUSH1 0x11 SLOAD PUSH2 0x234 SWAP1 PUSH4 0x1000000 SWAP1 DIV PUSH1 0xFF AND DUP2 JUMP JUMPDEST CALLVALUE DUP1 ISZERO PUSH2 0x485 JUMPI PUSH1 0x0 DUP1 REVERT JUMPDEST POP PUSH1 0x8 SLOAD PUSH1 0x1 PUSH1 0x1 PUSH1 0xA0 SHL SUB AND PUSH2 0x28B JUMP JUMPDEST CALLVALUE DUP1 ISZERO PUSH2 0x4A3 JUMPI PUSH1 0x0 DUP1 REVERT JUMPDEST POP PUSH2 0x25E PUSH2 0xCD6 JUMP JUMPDEST CALLVALUE DUP1 ISZERO PUSH2 0x4B8 JUMPI PUSH1 0x0 DUP1 REVERT JUMPDEST POP PUSH2 0x2B6 PUSH2 0x4C7 CALLDATASIZE PUSH1 0x4 PUSH2 0x191B JUMP JUMPDEST PUSH2 0xCE5 JUMP JUMPDEST PUSH2 0x2B6 PUSH2 0x4DA CALLDATASIZE PUSH1 0x4 PUSH2 0x18C1 JUMP JUMPDEST PUSH2 0xD0F JUMP JUMPDEST CALLVALUE DUP1 ISZERO PUSH2 0x4EB JUMPI PUSH1 0x0 DUP1 REVERT JUMPDEST POP PUSH2 0x2B6 PUSH2 0x4FA CALLDATASIZE PUSH1 0x4 PUSH2 0x1A57 JUMP JUMPDEST PUSH2 0xF83 JUMP JUMPDEST PUSH2 0x2B6 PUSH2 0x50D CALLDATASIZE PUSH1 0x4 PUSH2 0x1A8A JUMP JUMPDEST PUSH2 0xFEF JUMP JUMPDEST CALLVALUE DUP1 ISZERO PUSH2 0x51E JUMPI PUSH1 0x0 DUP1 REVERT JUMPDEST POP PUSH1 0x11 SLOAD PUSH2 0x52D SWAP1 PUSH2 0xFFFF AND DUP2 JUMP JUMPDEST PUSH1 0x40 MLOAD PUSH2 0xFFFF SWAP1 SWAP2 AND DUP2 MSTORE PUSH1 0x20 ADD PUSH2 0x240 JUMP JUMPDEST CALLVALUE DUP1 ISZERO PUSH2 0x54C JUMPI PUSH1 0x0 DUP1 REVERT JUMPDEST POP PUSH2 0x2B6 PUSH2 0x55B CALLDATASIZE PUSH1 0x4 PUSH2 0x1B06 JUMP JUMPDEST PUSH2 0x1030 JUMP JUMPDEST CALLVALUE DUP1 ISZERO PUSH2 0x56C JUMPI PUSH1 0x0 DUP1 REVERT JUMPDEST POP PUSH2 0x25E PUSH2 0x57B CALLDATASIZE PUSH1 0x4 PUSH2 0x18C1 JUMP JUMPDEST PUSH2 0x1054 JUMP JUMPDEST CALLVALUE DUP1 ISZERO PUSH2 0x58C JUMPI PUSH1 0x0 DUP1 REVERT JUMPDEST POP PUSH2 0x2EE PUSH1 0x10 SLOAD DUP2 JUMP JUMPDEST CALLVALUE DUP1 ISZERO PUSH2 0x5A2 JUMPI PUSH1 0x0 DUP1 REVERT JUMPDEST POP PUSH2 0x2B6 PUSH2 0x5B1 CALLDATASIZE PUSH1 0x4 PUSH2 0x1B06 JUMP JUMPDEST PUSH2 0x111F JUMP JUMPDEST CALLVALUE DUP1 ISZERO PUSH2 0x5C2 JUMPI PUSH1 0x0 DUP1 REVERT JUMPDEST POP PUSH2 0x2EE PUSH2 0x5D1 CALLDATASIZE PUSH1 0x4 PUSH2 0x191B JUMP JUMPDEST PUSH2 0x1145 JUMP JUMPDEST CALLVALUE DUP1 ISZERO PUSH2 0x5E2 JUMPI PUSH1 0x0 DUP1 REVERT JUMPDEST POP PUSH2 0x2B6 PUSH2 0x5F1 CALLDATASIZE PUSH1 0x4 PUSH2 0x1B21 JUMP JUMPDEST PUSH2 0x1170 JUMP JUMPDEST CALLVALUE DUP1 ISZERO PUSH2 0x602 JUMPI PUSH1 0x0 DUP1 REVERT JUMPDEST POP PUSH2 0x234 PUSH2 0x611 CALLDATASIZE PUSH1 0x4 PUSH2 0x1B45 JUMP JUMPDEST PUSH2 0x1190 JUMP JUMPDEST CALLVALUE DUP1 ISZERO PUSH2 0x622 JUMPI PUSH1 0x0 DUP1 REVERT JUMPDEST POP PUSH2 0x2B6 PUSH2 0x631 CALLDATASIZE PUSH1 0x4 PUSH2 0x191B JUMP JUMPDEST PUSH2 0x11BE JUMP JUMPDEST CALLVALUE DUP1 ISZERO PUSH2 0x642 JUMPI PUSH1 0x0 DUP1 REVERT JUMPDEST POP PUSH2 0x2B6 PUSH2 0x651 CALLDATASIZE PUSH1 0x4 PUSH2 0x18F1 JUMP JUMPDEST PUSH2 0x1234 JUMP JUMPDEST PUSH1 0x0 PUSH4 0x1FFC9A7 PUSH1 0xE0 SHL PUSH1 0x1 PUSH1 0x1 PUSH1 0xE0 SHL SUB NOT DUP4 AND EQ DUP1 PUSH2 0x687 JUMPI POP PUSH4 0x80AC58CD PUSH1 0xE0 SHL PUSH1 0x1 PUSH1 0x1 PUSH1 0xE0 SHL SUB NOT DUP4 AND EQ JUMPDEST DUP1 PUSH2 0x6A2 JUMPI POP PUSH4 0x5B5E139F PUSH1 0xE0 SHL PUSH1 0x1 PUSH1 0x1 PUSH1 0xE0 SHL SUB NOT DUP4 AND EQ JUMPDEST SWAP3 SWAP2 POP POP JUMP JUMPDEST PUSH1 0x60 PUSH1 0x2 DUP1 SLOAD PUSH2 0x6B7 SWAP1 PUSH2 0x1B6F JUMP JUMPDEST DUP1 PUSH1 0x1F ADD PUSH1 0x20 DUP1 SWAP2 DIV MUL PUSH1 0x20 ADD PUSH1 0x40 MLOAD SWAP1 DUP2 ADD PUSH1 0x40 MSTORE DUP1 SWAP3 SWAP2 SWAP1 DUP2 DUP2 MSTORE PUSH1 0x20 ADD DUP3 DUP1 SLOAD PUSH2 0x6E3 SWAP1 PUSH2 0x1B6F JUMP JUMPDEST DUP1 ISZERO PUSH2 0x730 JUMPI DUP1 PUSH1 0x1F LT PUSH2 0x705 JUMPI PUSH2 0x100 DUP1 DUP4 SLOAD DIV MUL DUP4 MSTORE SWAP2 PUSH1 0x20 ADD SWAP2 PUSH2 0x730 JUMP JUMPDEST DUP3 ADD SWAP2 SWAP1 PUSH1 0x0 MSTORE PUSH1 0x20 PUSH1 0x0 KECCAK256 SWAP1 JUMPDEST DUP2 SLOAD DUP2 MSTORE SWAP1 PUSH1 0x1 ADD SWAP1 PUSH1 0x20 ADD DUP1 DUP4 GT PUSH2 0x713 JUMPI DUP3 SWAP1 SUB PUSH1 0x1F AND DUP3 ADD SWAP2 JUMPDEST POP POP POP POP POP SWAP1 POP SWAP1 JUMP JUMPDEST PUSH1 0x0 PUSH2 0x745 DUP3 PUSH2 0x129D JUMP JUMPDEST PUSH2 0x759 JUMPI PUSH2 0x759 PUSH4 0x33D1C039 PUSH1 0xE2 SHL PUSH2 0x12C4 JUMP JUMPDEST POP PUSH1 0x0 SWAP1 DUP2 MSTORE PUSH1 0x6 PUSH1 0x20 MSTORE PUSH1 0x40 SWAP1 KECCAK256 SLOAD PUSH1 0x1 PUSH1 0x1 PUSH1 0xA0 SHL SUB AND SWAP1 JUMP JUMPDEST PUSH2 0x781 DUP3 DUP3 PUSH1 0x1 PUSH2 0x12CE JUMP JUMPDEST POP POP JUMP JUMPDEST PUSH2 0x78D PUSH2 0x1371 JUMP JUMPDEST PUSH1 0xB DUP1 SLOAD PUSH1 0x1 PUSH1 0x1 PUSH1 0xA0 SHL SUB NOT AND PUSH1 0x1 PUSH1 0x1 PUSH1 0xA0 SHL SUB SWAP3 SWAP1 SWAP3 AND SWAP2 SWAP1 SWAP2 OR SWAP1 SSTORE JUMP JUMPDEST PUSH1 0x0 PUSH2 0x7BA DUP3 PUSH2 0x13CB JUMP JUMPDEST PUSH1 0x1 PUSH1 0x1 PUSH1 0xA0 SHL SUB SWAP5 DUP6 AND SWAP5 SWAP1 SWAP2 POP DUP2 AND DUP5 EQ PUSH2 0x7E0 JUMPI PUSH2 0x7E0 PUSH3 0xA11481 PUSH1 0xE8 SHL PUSH2 0x12C4 JUMP JUMPDEST PUSH1 0x0 DUP3 DUP2 MSTORE PUSH1 0x6 PUSH1 0x20 MSTORE PUSH1 0x40 SWAP1 KECCAK256 DUP1 SLOAD CALLER DUP1 DUP3 EQ PUSH1 0x1 PUSH1 0x1 PUSH1 0xA0 SHL SUB DUP9 AND SWAP1 SWAP2 EQ OR PUSH2 0x824 JUMPI PUSH2 0x810 DUP7 CALLER PUSH2 0x1190 JUMP JUMPDEST PUSH2 0x824 JUMPI PUSH2 0x824 PUSH4 0x2CE44B5F PUSH1 0xE1 SHL PUSH2 0x12C4 JUMP JUMPDEST DUP1 ISZERO PUSH2 0x82F JUMPI PUSH1 0x0 DUP3 SSTORE JUMPDEST PUSH1 0x1 PUSH1 0x1 PUSH1 0xA0 SHL SUB DUP7 DUP2 AND PUSH1 0x0 SWAP1 DUP2 MSTORE PUSH1 0x5 PUSH1 0x20 MSTORE PUSH1 0x40 DUP1 DUP3 KECCAK256 DUP1 SLOAD PUSH1 0x0 NOT ADD SWAP1 SSTORE SWAP2 DUP8 AND DUP1 DUP3 MSTORE SWAP2 SWAP1 KECCAK256 DUP1 SLOAD PUSH1 0x1 ADD SWAP1 SSTORE TIMESTAMP PUSH1 0xA0 SHL OR PUSH1 0x1 PUSH1 0xE1 SHL OR PUSH1 0x0 DUP6 DUP2 MSTORE PUSH1 0x4 PUSH1 0x20 MSTORE PUSH1 0x40 DUP2 KECCAK256 SWAP2 SWAP1 SWAP2 SSTORE PUSH1 0x1 PUSH1 0xE1 SHL DUP5 AND SWAP1 SUB PUSH2 0x8C1 JUMPI PUSH1 0x1 DUP5 ADD PUSH1 0x0 DUP2 DUP2 MSTORE PUSH1 0x4 PUSH1 0x20 MSTORE PUSH1 0x40 DUP2 KECCAK256 SLOAD SWAP1 SUB PUSH2 0x8BF JUMPI PUSH1 0x0 SLOAD DUP2 EQ PUSH2 0x8BF JUMPI PUSH1 0x0 DUP2 DUP2 MSTORE PUSH1 0x4 PUSH1 0x20 MSTORE PUSH1 0x40 SWAP1 KECCAK256 DUP5 SWAP1 SSTORE JUMPDEST POP JUMPDEST PUSH1 0x1 PUSH1 0x1 PUSH1 0xA0 SHL SUB DUP6 AND DUP5 DUP2 DUP9 PUSH32 0xDDF252AD1BE2C89B69C2B068FC378DAA952BA7F163C4A11628F55A4DF523B3EF PUSH1 0x0 DUP1 LOG4 DUP1 PUSH1 0x0 SUB PUSH2 0x90B JUMPI PUSH2 0x90B PUSH4 0x3A954ECD PUSH1 0xE2 SHL PUSH2 0x12C4 JUMP JUMPDEST POP POP POP POP POP POP POP JUMP JUMPDEST PUSH1 0xE DUP1 SLOAD PUSH2 0x921 SWAP1 PUSH2 0x1B6F JUMP JUMPDEST DUP1 PUSH1 0x1F ADD PUSH1 0x20 DUP1 SWAP2 DIV MUL PUSH1 0x20 ADD PUSH1 0x40 MLOAD SWAP1 DUP2 ADD PUSH1 0x40 MSTORE DUP1 SWAP3 SWAP2 SWAP1 DUP2 DUP2 MSTORE PUSH1 0x20 ADD DUP3 DUP1 SLOAD PUSH2 0x94D SWAP1 PUSH2 0x1B6F JUMP JUMPDEST DUP1 ISZERO PUSH2 0x99A JUMPI DUP1 PUSH1 0x1F LT PUSH2 0x96F JUMPI PUSH2 0x100 DUP1 DUP4 SLOAD DIV MUL DUP4 MSTORE SWAP2 PUSH1 0x20 ADD SWAP2 PUSH2 0x99A JUMP JUMPDEST DUP3 ADD SWAP2 SWAP1 PUSH1 0x0 MSTORE PUSH1 0x20 PUSH1 0x0 KECCAK256 SWAP1 JUMPDEST DUP2 SLOAD DUP2 MSTORE SWAP1 PUSH1 0x1 ADD SWAP1 PUSH1 0x20 ADD DUP1 DUP4 GT PUSH2 0x97D JUMPI DUP3 SWAP1 SUB PUSH1 0x1F AND DUP3 ADD SWAP2 JUMPDEST POP POP POP POP POP DUP2 JUMP JUMPDEST PUSH2 0x9BD DUP4 DUP4 DUP4 PUSH1 0x40 MLOAD DUP1 PUSH1 0x20 ADD PUSH1 0x40 MSTORE DUP1 PUSH1 0x0 DUP2 MSTORE POP PUSH2 0xFEF JUMP JUMPDEST POP POP POP JUMP JUMPDEST PUSH2 0x9CA PUSH2 0x1371 JUMP JUMPDEST PUSH1 0xF SSTORE JUMP JUMPDEST PUSH2 0x9D7 PUSH2 0x1371 JUMP JUMPDEST PUSH1 0xE PUSH2 0x781 DUP3 DUP3 PUSH2 0x1BF7 JUMP JUMPDEST PUSH1 0x11 SLOAD PUSH3 0x10000 SWAP1 DIV PUSH1 0xFF AND ISZERO PUSH2 0xAFC JUMPI PUSH1 0x9 SLOAD PUSH1 0x40 MLOAD PUSH4 0x70A08231 PUSH1 0xE0 SHL DUP2 MSTORE CALLER PUSH1 0x4 DUP3 ADD MSTORE PUSH1 0x0 SWAP2 PUSH1 0x1 PUSH1 0x1 PUSH1 0xA0 SHL SUB AND SWAP1 PUSH4 0x70A08231 SWAP1 PUSH1 0x24 ADD PUSH1 0x20 PUSH1 0x40 MLOAD DUP1 DUP4 SUB DUP2 DUP7 GAS STATICCALL ISZERO DUP1 ISZERO PUSH2 0xA3D JUMPI RETURNDATASIZE PUSH1 0x0 DUP1 RETURNDATACOPY RETURNDATASIZE PUSH1 0x0 REVERT JUMPDEST POP POP POP POP PUSH1 0x40 MLOAD RETURNDATASIZE PUSH1 0x1F NOT PUSH1 0x1F DUP3 ADD AND DUP3 ADD DUP1 PUSH1 0x40 MSTORE POP DUP2 ADD SWAP1 PUSH2 0xA61 SWAP2 SWAP1 PUSH2 0x1CB7 JUMP JUMPDEST GT DUP1 PUSH2 0xAD7 JUMPI POP PUSH1 0xA SLOAD PUSH1 0x40 MLOAD PUSH4 0x70A08231 PUSH1 0xE0 SHL DUP2 MSTORE CALLER PUSH1 0x4 DUP3 ADD MSTORE PUSH1 0x0 SWAP2 PUSH1 0x1 PUSH1 0x1 PUSH1 0xA0 SHL SUB AND SWAP1 PUSH4 0x70A08231 SWAP1 PUSH1 0x24 ADD PUSH1 0x20 PUSH1 0x40 MLOAD DUP1 DUP4 SUB DUP2 DUP7 GAS STATICCALL ISZERO DUP1 ISZERO PUSH2 0xAB1 JUMPI RETURNDATASIZE PUSH1 0x0 DUP1 RETURNDATACOPY RETURNDATASIZE PUSH1 0x0 REVERT JUMPDEST POP POP POP POP PUSH1 0x40 MLOAD RETURNDATASIZE PUSH1 0x1F NOT PUSH1 0x1F DUP3 ADD AND DUP3 ADD DUP1 PUSH1 0x40 MSTORE POP DUP2 ADD SWAP1 PUSH2 0xAD5 SWAP2 SWAP1 PUSH2 0x1CB7 JUMP JUMPDEST GT JUMPDEST PUSH2 0xAFC JUMPI PUSH1 0x40 MLOAD PUSH3 0x461BCD PUSH1 0xE5 SHL DUP2 MSTORE PUSH1 0x4 ADD PUSH2 0xAF3 SWAP1 PUSH2 0x1CD0 JUMP JUMPDEST PUSH1 0x40 MLOAD DUP1 SWAP2 SUB SWAP1 REVERT JUMPDEST PUSH1 0x0 DUP2 GT PUSH2 0xB1C JUMPI PUSH1 0x40 MLOAD PUSH3 0x461BCD PUSH1 0xE5 SHL DUP2 MSTORE PUSH1 0x4 ADD PUSH2 0xAF3 SWAP1 PUSH2 0x1D16 JUMP JUMPDEST PUSH1 0x11 SLOAD PUSH2 0xFFFF AND DUP2 GT ISZERO PUSH2 0xB42 JUMPI PUSH1 0x40 MLOAD PUSH3 0x461BCD PUSH1 0xE5 SHL DUP2 MSTORE PUSH1 0x4 ADD PUSH2 0xAF3 SWAP1 PUSH2 0x1D5A JUMP JUMPDEST PUSH1 0x10 SLOAD DUP2 PUSH2 0xB53 PUSH1 0x1 SLOAD PUSH1 0x0 SLOAD SUB SWAP1 JUMP JUMPDEST PUSH2 0xB5D SWAP2 SWAP1 PUSH2 0x1DB7 JUMP JUMPDEST GT ISZERO PUSH2 0xBA0 JUMPI PUSH1 0x40 MLOAD PUSH3 0x461BCD PUSH1 0xE5 SHL DUP2 MSTORE PUSH1 0x20 PUSH1 0x4 DUP3 ADD MSTORE PUSH1 0x12 PUSH1 0x24 DUP3 ADD MSTORE PUSH18 0x45786365656473204D617820537570706C79 PUSH1 0x70 SHL PUSH1 0x44 DUP3 ADD MSTORE PUSH1 0x64 ADD PUSH2 0xAF3 JUMP JUMPDEST DUP1 PUSH1 0xF SLOAD PUSH2 0xBAE SWAP2 SWAP1 PUSH2 0x1DCA JUMP JUMPDEST CALLVALUE LT ISZERO PUSH2 0xBF4 JUMPI PUSH1 0x40 MLOAD PUSH3 0x461BCD PUSH1 0xE5 SHL DUP2 MSTORE PUSH1 0x20 PUSH1 0x4 DUP3 ADD MSTORE PUSH1 0x14 PUSH1 0x24 DUP3 ADD MSTORE PUSH20 0x125B98DBDC9C9958DD081D985B1D59481CD95B9D PUSH1 0x62 SHL PUSH1 0x44 DUP3 ADD MSTORE PUSH1 0x64 ADD PUSH2 0xAF3 JUMP JUMPDEST PUSH1 0xD SLOAD PUSH1 0x1 PUSH1 0x1 PUSH1 0xA0 SHL SUB AND CALLER EQ PUSH2 0xC5A JUMPI PUSH1 0x40 MLOAD PUSH3 0x461BCD PUSH1 0xE5 SHL DUP2 MSTORE PUSH1 0x20 PUSH1 0x4 DUP3 ADD MSTORE PUSH1 0x24 DUP1 DUP3 ADD MSTORE PUSH32 0x546869732066756E6374696F6E20697320666F722043726F73736D696E74206F PUSH1 0x44 DUP3 ADD MSTORE PUSH4 0x37363C97 PUSH1 0xE1 SHL PUSH1 0x64 DUP3 ADD MSTORE PUSH1 0x84 ADD PUSH2 0xAF3 JUMP JUMPDEST PUSH2 0x781 DUP3 DUP3 PUSH2 0x143A JUMP JUMPDEST PUSH1 0x0 PUSH2 0x6A2 DUP3 PUSH2 0x13CB JUMP JUMPDEST PUSH2 0xC77 PUSH2 0x1371 JUMP JUMPDEST PUSH1 0x10 SSTORE JUMP JUMPDEST PUSH1 0x0 PUSH1 0x1 PUSH1 0x1 PUSH1 0xA0 SHL SUB DUP3 AND PUSH2 0xC9C JUMPI PUSH2 0xC9C PUSH4 0x23D3AD81 PUSH1 0xE2 SHL PUSH2 0x12C4 JUMP JUMPDEST POP PUSH1 0x1 PUSH1 0x1 PUSH1 0xA0 SHL SUB AND PUSH1 0x0 SWAP1 DUP2 MSTORE PUSH1 0x5 PUSH1 0x20 MSTORE PUSH1 0x40 SWAP1 KECCAK256 SLOAD PUSH8 0xFFFFFFFFFFFFFFFF AND SWAP1 JUMP JUMPDEST PUSH2 0xCCA PUSH2 0x1371 JUMP JUMPDEST PUSH2 0xCD4 PUSH1 0x0 PUSH2 0x1454 JUMP JUMPDEST JUMP JUMPDEST PUSH1 0x60 PUSH1 0x3 DUP1 SLOAD PUSH2 0x6B7 SWAP1 PUSH2 0x1B6F JUMP JUMPDEST PUSH2 0xCED PUSH2 0x1371 JUMP JUMPDEST PUSH1 0xD DUP1 SLOAD PUSH1 0x1 PUSH1 0x1 PUSH1 0xA0 SHL SUB NOT AND PUSH1 0x1 PUSH1 0x1 PUSH1 0xA0 SHL SUB SWAP3 SWAP1 SWAP3 AND SWAP2 SWAP1 SWAP2 OR SWAP1 SSTORE JUMP JUMPDEST PUSH1 0x8 SLOAD PUSH1 0x1 PUSH1 0x1 PUSH1 0xA0 SHL SUB AND CALLER EQ PUSH2 0xF76 JUMPI PUSH1 0x11 SLOAD PUSH3 0x10000 SWAP1 DIV PUSH1 0xFF AND ISZERO PUSH2 0xE31 JUMPI PUSH1 0x9 SLOAD PUSH1 0x40 MLOAD PUSH4 0x70A08231 PUSH1 0xE0 SHL DUP2 MSTORE CALLER PUSH1 0x4 DUP3 ADD MSTORE PUSH1 0x0 SWAP2 PUSH1 0x1 PUSH1 0x1 PUSH1 0xA0 SHL SUB AND SWAP1 PUSH4 0x70A08231 SWAP1 PUSH1 0x24 ADD PUSH1 0x20 PUSH1 0x40 MLOAD DUP1 DUP4 SUB DUP2 DUP7 GAS STATICCALL ISZERO DUP1 ISZERO PUSH2 0xD7B JUMPI RETURNDATASIZE PUSH1 0x0 DUP1 RETURNDATACOPY RETURNDATASIZE PUSH1 0x0 REVERT JUMPDEST POP POP POP POP PUSH1 0x40 MLOAD RETURNDATASIZE PUSH1 0x1F NOT PUSH1 0x1F DUP3 ADD AND DUP3 ADD DUP1 PUSH1 0x40 MSTORE POP DUP2 ADD SWAP1 PUSH2 0xD9F SWAP2 SWAP1 PUSH2 0x1CB7 JUMP JUMPDEST GT DUP1 PUSH2 0xE15 JUMPI POP PUSH1 0xA SLOAD PUSH1 0x40 MLOAD PUSH4 0x70A08231 PUSH1 0xE0 SHL DUP2 MSTORE CALLER PUSH1 0x4 DUP3 ADD MSTORE PUSH1 0x0 SWAP2 PUSH1 0x1 PUSH1 0x1 PUSH1 0xA0 SHL SUB AND SWAP1 PUSH4 0x70A08231 SWAP1 PUSH1 0x24 ADD PUSH1 0x20 PUSH1 0x40 MLOAD DUP1 DUP4 SUB DUP2 DUP7 GAS STATICCALL ISZERO DUP1 ISZERO PUSH2 0xDEF JUMPI RETURNDATASIZE PUSH1 0x0 DUP1 RETURNDATACOPY RETURNDATASIZE PUSH1 0x0 REVERT JUMPDEST POP POP POP POP PUSH1 0x40 MLOAD RETURNDATASIZE PUSH1 0x1F NOT PUSH1 0x1F DUP3 ADD AND DUP3 ADD DUP1 PUSH1 0x40 MSTORE POP DUP2 ADD SWAP1 PUSH2 0xE13 SWAP2 SWAP1 PUSH2 0x1CB7 JUMP JUMPDEST GT JUMPDEST PUSH2 0xE31 JUMPI PUSH1 0x40 MLOAD PUSH3 0x461BCD PUSH1 0xE5 SHL DUP2 MSTORE PUSH1 0x4 ADD PUSH2 0xAF3 SWAP1 PUSH2 0x1CD0 JUMP JUMPDEST PUSH1 0x11 SLOAD PUSH4 0x1000000 SWAP1 DIV PUSH1 0xFF AND PUSH2 0xE82 JUMPI PUSH1 0x40 MLOAD PUSH3 0x461BCD PUSH1 0xE5 SHL DUP2 MSTORE PUSH1 0x20 PUSH1 0x4 DUP3 ADD MSTORE PUSH1 0x15 PUSH1 0x24 DUP3 ADD MSTORE PUSH21 0x29B0B632902430B9902737BA1029BA30B93A32B217 PUSH1 0x59 SHL PUSH1 0x44 DUP3 ADD MSTORE PUSH1 0x64 ADD PUSH2 0xAF3 JUMP JUMPDEST PUSH1 0x0 DUP2 GT PUSH2 0xEA2 JUMPI PUSH1 0x40 MLOAD PUSH3 0x461BCD PUSH1 0xE5 SHL DUP2 MSTORE PUSH1 0x4 ADD PUSH2 0xAF3 SWAP1 PUSH2 0x1D16 JUMP JUMPDEST PUSH1 0x11 SLOAD PUSH2 0xFFFF AND DUP2 GT ISZERO PUSH2 0xEC8 JUMPI PUSH1 0x40 MLOAD PUSH3 0x461BCD PUSH1 0xE5 SHL DUP2 MSTORE PUSH1 0x4 ADD PUSH2 0xAF3 SWAP1 PUSH2 0x1D5A JUMP JUMPDEST PUSH1 0x10 SLOAD DUP2 PUSH2 0xED9 PUSH1 0x1 SLOAD PUSH1 0x0 SLOAD SUB SWAP1 JUMP JUMPDEST PUSH2 0xEE3 SWAP2 SWAP1 PUSH2 0x1DB7 JUMP JUMPDEST GT ISZERO PUSH2 0xF26 JUMPI PUSH1 0x40 MLOAD PUSH3 0x461BCD PUSH1 0xE5 SHL DUP2 MSTORE PUSH1 0x20 PUSH1 0x4 DUP3 ADD MSTORE PUSH1 0x12 PUSH1 0x24 DUP3 ADD MSTORE PUSH18 0x45786365656473204D617820537570706C79 PUSH1 0x70 SHL PUSH1 0x44 DUP3 ADD MSTORE PUSH1 0x64 ADD PUSH2 0xAF3 JUMP JUMPDEST DUP1 PUSH1 0xF SLOAD PUSH2 0xF34 SWAP2 SWAP1 PUSH2 0x1DCA JUMP JUMPDEST CALLVALUE LT ISZERO PUSH2 0xF76 JUMPI PUSH1 0x40 MLOAD PUSH3 0x461BCD PUSH1 0xE5 SHL DUP2 MSTORE PUSH1 0x20 PUSH1 0x4 DUP3 ADD MSTORE PUSH1 0x10 PUSH1 0x24 DUP3 ADD MSTORE PUSH16 0x496E7375666669656E742066756E6473 PUSH1 0x80 SHL PUSH1 0x44 DUP3 ADD MSTORE PUSH1 0x64 ADD PUSH2 0xAF3 JUMP JUMPDEST PUSH2 0xF80 CALLER DUP3 PUSH2 0x143A JUMP JUMPDEST POP JUMP JUMPDEST CALLER PUSH1 0x0 DUP2 DUP2 MSTORE PUSH1 0x7 PUSH1 0x20 SWAP1 DUP2 MSTORE PUSH1 0x40 DUP1 DUP4 KECCAK256 PUSH1 0x1 PUSH1 0x1 PUSH1 0xA0 SHL SUB DUP8 AND DUP1 DUP6 MSTORE SWAP1 DUP4 MSTORE SWAP3 DUP2 SWAP1 KECCAK256 DUP1 SLOAD PUSH1 0xFF NOT AND DUP7 ISZERO ISZERO SWAP1 DUP2 OR SWAP1 SWAP2 SSTORE SWAP1 MLOAD SWAP1 DUP2 MSTORE SWAP2 SWAP3 SWAP2 PUSH32 0x17307EAB39AB6107E8899845AD3D59BD9653F200F220920489CA2B5937696C31 SWAP2 ADD PUSH1 0x40 MLOAD DUP1 SWAP2 SUB SWAP1 LOG3 POP POP JUMP JUMPDEST PUSH2 0xFFA DUP5 DUP5 DUP5 PUSH2 0x7AF JUMP JUMPDEST PUSH1 0x1 PUSH1 0x1 PUSH1 0xA0 SHL SUB DUP4 AND EXTCODESIZE ISZERO PUSH2 0x102A JUMPI PUSH2 0x1016 DUP5 DUP5 DUP5 DUP5 PUSH2 0x14A6 JUMP JUMPDEST PUSH2 0x102A JUMPI PUSH2 0x102A PUSH4 0x68D2BF6B PUSH1 0xE1 SHL PUSH2 0x12C4 JUMP JUMPDEST POP POP POP POP JUMP JUMPDEST PUSH2 0x1038 PUSH2 0x1371 JUMP JUMPDEST PUSH1 0x11 DUP1 SLOAD SWAP2 ISZERO ISZERO PUSH3 0x10000 MUL PUSH3 0xFF0000 NOT SWAP1 SWAP3 AND SWAP2 SWAP1 SWAP2 OR SWAP1 SSTORE JUMP JUMPDEST PUSH1 0x60 PUSH2 0x105F DUP3 PUSH2 0x129D JUMP JUMPDEST PUSH2 0x10C3 JUMPI PUSH1 0x40 MLOAD PUSH3 0x461BCD PUSH1 0xE5 SHL DUP2 MSTORE PUSH1 0x20 PUSH1 0x4 DUP3 ADD MSTORE PUSH1 0x2F PUSH1 0x24 DUP3 ADD MSTORE PUSH32 0x4552433732314D657461646174613A2055524920717565727920666F72206E6F PUSH1 0x44 DUP3 ADD MSTORE PUSH15 0x3732BC34B9BA32B73A103A37B5B2B7 PUSH1 0x89 SHL PUSH1 0x64 DUP3 ADD MSTORE PUSH1 0x84 ADD PUSH2 0xAF3 JUMP JUMPDEST PUSH1 0x0 PUSH2 0x10CD PUSH2 0x1589 JUMP JUMPDEST SWAP1 POP PUSH1 0x0 DUP2 MLOAD GT PUSH2 0x10ED JUMPI PUSH1 0x40 MLOAD DUP1 PUSH1 0x20 ADD PUSH1 0x40 MSTORE DUP1 PUSH1 0x0 DUP2 MSTORE POP PUSH2 0x1118 JUMP JUMPDEST DUP1 PUSH2 0x10F7 DUP5 PUSH2 0x1598 JUMP JUMPDEST PUSH1 0x40 MLOAD PUSH1 0x20 ADD PUSH2 0x1108 SWAP3 SWAP2 SWAP1 PUSH2 0x1DE1 JUMP JUMPDEST PUSH1 0x40 MLOAD PUSH1 0x20 DUP2 DUP4 SUB SUB DUP2 MSTORE SWAP1 PUSH1 0x40 MSTORE JUMPDEST SWAP4 SWAP3 POP POP POP JUMP JUMPDEST PUSH2 0x1127 PUSH2 0x1371 JUMP JUMPDEST PUSH1 0x11 DUP1 SLOAD SWAP2 ISZERO ISZERO PUSH4 0x1000000 MUL PUSH4 0xFF000000 NOT SWAP1 SWAP3 AND SWAP2 SWAP1 SWAP2 OR SWAP1 SSTORE JUMP JUMPDEST PUSH1 0x1 PUSH1 0x1 PUSH1 0xA0 SHL SUB DUP2 AND PUSH1 0x0 SWAP1 DUP2 MSTORE PUSH1 0x5 PUSH1 0x20 MSTORE PUSH1 0x40 DUP1 DUP3 KECCAK256 SLOAD PUSH8 0xFFFFFFFFFFFFFFFF SWAP2 SHR AND PUSH2 0x6A2 JUMP JUMPDEST PUSH2 0x1178 PUSH2 0x1371 JUMP JUMPDEST PUSH1 0x11 DUP1 SLOAD PUSH2 0xFFFF NOT AND PUSH2 0xFFFF SWAP3 SWAP1 SWAP3 AND SWAP2 SWAP1 SWAP2 OR SWAP1 SSTORE JUMP JUMPDEST PUSH1 0x1 PUSH1 0x1 PUSH1 0xA0 SHL SUB SWAP2 DUP3 AND PUSH1 0x0 SWAP1 DUP2 MSTORE PUSH1 0x7 PUSH1 0x20 SWAP1 DUP2 MSTORE PUSH1 0x40 DUP1 DUP4 KECCAK256 SWAP4 SWAP1 SWAP5 AND DUP3 MSTORE SWAP2 SWAP1 SWAP2 MSTORE KECCAK256 SLOAD PUSH1 0xFF AND SWAP1 JUMP JUMPDEST PUSH2 0x11C6 PUSH2 0x1371 JUMP JUMPDEST PUSH1 0x1 PUSH1 0x1 PUSH1 0xA0 SHL SUB DUP2 AND PUSH2 0x122B JUMPI PUSH1 0x40 MLOAD PUSH3 0x461BCD PUSH1 0xE5 SHL DUP2 MSTORE PUSH1 0x20 PUSH1 0x4 DUP3 ADD MSTORE PUSH1 0x26 PUSH1 0x24 DUP3 ADD MSTORE PUSH32 0x4F776E61626C653A206E6577206F776E657220697320746865207A65726F2061 PUSH1 0x44 DUP3 ADD MSTORE PUSH6 0x646472657373 PUSH1 0xD0 SHL PUSH1 0x64 DUP3 ADD MSTORE PUSH1 0x84 ADD PUSH2 0xAF3 JUMP JUMPDEST PUSH2 0xF80 DUP2 PUSH2 0x1454 JUMP JUMPDEST PUSH1 0xB SLOAD PUSH1 0x1 PUSH1 0x1 PUSH1 0xA0 SHL SUB AND CALLER EQ PUSH2 0xC5A JUMPI PUSH1 0x40 MLOAD PUSH3 0x461BCD PUSH1 0xE5 SHL DUP2 MSTORE PUSH1 0x20 PUSH1 0x4 DUP3 ADD MSTORE PUSH1 0x26 PUSH1 0x24 DUP3 ADD MSTORE PUSH32 0x536F72727920796F7520646F6E742068617665207065726D697373696F6E2074 PUSH1 0x44 DUP3 ADD MSTORE PUSH6 0x1BC81B5A5B9D PUSH1 0xD2 SHL PUSH1 0x64 DUP3 ADD MSTORE PUSH1 0x84 ADD PUSH2 0xAF3 JUMP JUMPDEST PUSH1 0x0 DUP1 SLOAD DUP3 LT DUP1 ISZERO PUSH2 0x6A2 JUMPI POP POP PUSH1 0x0 SWAP1 DUP2 MSTORE PUSH1 0x4 PUSH1 0x20 MSTORE PUSH1 0x40 SWAP1 KECCAK256 SLOAD PUSH1 0x1 PUSH1 0xE0 SHL AND ISZERO SWAP1 JUMP JUMPDEST DUP1 PUSH1 0x0 MSTORE PUSH1 0x4 PUSH1 0x0 REVERT JUMPDEST PUSH1 0x0 PUSH2 0x12D9 DUP4 PUSH2 0xC64 JUMP JUMPDEST SWAP1 POP DUP2 DUP1 ISZERO PUSH2 0x12F1 JUMPI POP CALLER PUSH1 0x1 PUSH1 0x1 PUSH1 0xA0 SHL SUB DUP3 AND EQ ISZERO JUMPDEST ISZERO PUSH2 0x1314 JUMPI PUSH2 0x1300 DUP2 CALLER PUSH2 0x1190 JUMP JUMPDEST PUSH2 0x1314 JUMPI PUSH2 0x1314 PUSH4 0x67D9DCA1 PUSH1 0xE1 SHL PUSH2 0x12C4 JUMP JUMPDEST PUSH1 0x0 DUP4 DUP2 MSTORE PUSH1 0x6 PUSH1 0x20 MSTORE PUSH1 0x40 DUP1 DUP3 KECCAK256 DUP1 SLOAD PUSH1 0x1 PUSH1 0x1 PUSH1 0xA0 SHL SUB NOT AND PUSH1 0x1 PUSH1 0x1 PUSH1 0xA0 SHL SUB DUP9 DUP2 AND SWAP2 DUP3 OR SWAP1 SWAP3 SSTORE SWAP2 MLOAD DUP7 SWAP4 SWAP2 DUP6 AND SWAP2 PUSH32 0x8C5BE1E5EBEC7D5BD14F71427D1E84F3DD0314C0F7B2291E5B200AC8C7C3B925 SWAP2 LOG4 POP POP POP POP JUMP JUMPDEST PUSH1 0x8 SLOAD PUSH1 0x1 PUSH1 0x1 PUSH1 0xA0 SHL SUB AND CALLER EQ PUSH2 0xCD4 JUMPI PUSH1 0x40 MLOAD PUSH3 0x461BCD PUSH1 0xE5 SHL DUP2 MSTORE PUSH1 0x20 PUSH1 0x4 DUP3 ADD DUP2 SWAP1 MSTORE PUSH1 0x24 DUP3 ADD MSTORE PUSH32 0x4F776E61626C653A2063616C6C6572206973206E6F7420746865206F776E6572 PUSH1 0x44 DUP3 ADD MSTORE PUSH1 0x64 ADD PUSH2 0xAF3 JUMP JUMPDEST PUSH1 0x0 DUP2 DUP2 MSTORE PUSH1 0x4 PUSH1 0x20 MSTORE PUSH1 0x40 DUP2 KECCAK256 SLOAD SWAP1 PUSH1 0x1 PUSH1 0xE0 SHL DUP3 AND SWAP1 SUB PUSH2 0x142A JUMPI DUP1 PUSH1 0x0 SUB PUSH2 0x1425 JUMPI PUSH1 0x0 SLOAD DUP3 LT PUSH2 0x1409 JUMPI PUSH2 0x1409 PUSH4 0x6F96CDA1 PUSH1 0xE1 SHL PUSH2 0x12C4 JUMP JUMPDEST JUMPDEST POP PUSH1 0x0 NOT ADD PUSH1 0x0 DUP2 DUP2 MSTORE PUSH1 0x4 PUSH1 0x20 MSTORE PUSH1 0x40 SWAP1 KECCAK256 SLOAD DUP1 ISZERO PUSH2 0x140A JUMPI JUMPDEST SWAP2 SWAP1 POP JUMP JUMPDEST PUSH2 0x1425 PUSH4 0x6F96CDA1 PUSH1 0xE1 SHL PUSH2 0x12C4 JUMP JUMPDEST PUSH2 0x781 DUP3 DUP3 PUSH1 0x40 MLOAD DUP1 PUSH1 0x20 ADD PUSH1 0x40 MSTORE DUP1 PUSH1 0x0 DUP2 MSTORE POP PUSH2 0x162B JUMP JUMPDEST PUSH1 0x8 DUP1 SLOAD PUSH1 0x1 PUSH1 0x1 PUSH1 0xA0 SHL SUB DUP4 DUP2 AND PUSH1 0x1 PUSH1 0x1 PUSH1 0xA0 SHL SUB NOT DUP4 AND DUP2 OR SWAP1 SWAP4 SSTORE PUSH1 0x40 MLOAD SWAP2 AND SWAP2 SWAP1 DUP3 SWAP1 PUSH32 0x8BE0079C531659141344CD1FD0A4F28419497F9722A3DAAFE3B4186F6B6457E0 SWAP1 PUSH1 0x0 SWAP1 LOG3 POP POP JUMP JUMPDEST PUSH1 0x40 MLOAD PUSH4 0xA85BD01 PUSH1 0xE1 SHL DUP2 MSTORE PUSH1 0x0 SWAP1 PUSH1 0x1 PUSH1 0x1 PUSH1 0xA0 SHL SUB DUP6 AND SWAP1 PUSH4 0x150B7A02 SWAP1 PUSH2 0x14DB SWAP1 CALLER SWAP1 DUP10 SWAP1 DUP9 SWAP1 DUP9 SWAP1 PUSH1 0x4 ADD PUSH2 0x1E10 JUMP JUMPDEST PUSH1 0x20 PUSH1 0x40 MLOAD DUP1 DUP4 SUB DUP2 PUSH1 0x0 DUP8 GAS CALL SWAP3 POP POP POP DUP1 ISZERO PUSH2 0x1516 JUMPI POP PUSH1 0x40 DUP1 MLOAD PUSH1 0x1F RETURNDATASIZE SWAP1 DUP2 ADD PUSH1 0x1F NOT AND DUP3 ADD SWAP1 SWAP3 MSTORE PUSH2 0x1513 SWAP2 DUP2 ADD SWAP1 PUSH2 0x1E4D JUMP JUMPDEST PUSH1 0x1 JUMPDEST PUSH2 0x156B JUMPI RETURNDATASIZE DUP1 DUP1 ISZERO PUSH2 0x1544 JUMPI PUSH1 0x40 MLOAD SWAP2 POP PUSH1 0x1F NOT PUSH1 0x3F RETURNDATASIZE ADD AND DUP3 ADD PUSH1 0x40 MSTORE RETURNDATASIZE DUP3 MSTORE RETURNDATASIZE PUSH1 0x0 PUSH1 0x20 DUP5 ADD RETURNDATACOPY PUSH2 0x1549 JUMP JUMPDEST PUSH1 0x60 SWAP2 POP JUMPDEST POP DUP1 MLOAD PUSH1 0x0 SUB PUSH2 0x1563 JUMPI PUSH2 0x1563 PUSH4 0x68D2BF6B PUSH1 0xE1 SHL PUSH2 0x12C4 JUMP JUMPDEST DUP1 MLOAD DUP2 PUSH1 0x20 ADD REVERT JUMPDEST PUSH1 0x1 PUSH1 0x1 PUSH1 0xE0 SHL SUB NOT AND PUSH4 0xA85BD01 PUSH1 0xE1 SHL EQ SWAP1 POP JUMPDEST SWAP5 SWAP4 POP POP POP POP JUMP JUMPDEST PUSH1 0x60 PUSH1 0xE DUP1 SLOAD PUSH2 0x6B7 SWAP1 PUSH2 0x1B6F JUMP JUMPDEST PUSH1 0x60 PUSH1 0x0 PUSH2 0x15A5 DUP4 PUSH2 0x1694 JUMP JUMPDEST PUSH1 0x1 ADD SWAP1 POP PUSH1 0x0 DUP2 PUSH8 0xFFFFFFFFFFFFFFFF DUP2 GT ISZERO PUSH2 0x15C5 JUMPI PUSH2 0x15C5 PUSH2 0x1972 JUMP JUMPDEST PUSH1 0x40 MLOAD SWAP1 DUP1 DUP3 MSTORE DUP1 PUSH1 0x1F ADD PUSH1 0x1F NOT AND PUSH1 0x20 ADD DUP3 ADD PUSH1 0x40 MSTORE DUP1 ISZERO PUSH2 0x15EF JUMPI PUSH1 0x20 DUP3 ADD DUP2 DUP1 CALLDATASIZE DUP4 CALLDATACOPY ADD SWAP1 POP JUMPDEST POP SWAP1 POP DUP2 DUP2 ADD PUSH1 0x20 ADD JUMPDEST PUSH1 0x0 NOT ADD PUSH16 0x181899199A1A9B1B9C1CB0B131B232B3 PUSH1 0x81 SHL PUSH1 0xA DUP7 MOD BYTE DUP2 MSTORE8 PUSH1 0xA DUP6 DIV SWAP5 POP DUP5 PUSH2 0x15F9 JUMPI POP SWAP4 SWAP3 POP POP POP JUMP JUMPDEST PUSH2 0x1635 DUP4 DUP4 PUSH2 0x176C JUMP JUMPDEST PUSH1 0x1 PUSH1 0x1 PUSH1 0xA0 SHL SUB DUP4 AND EXTCODESIZE ISZERO PUSH2 0x9BD JUMPI PUSH1 0x0 SLOAD DUP3 DUP2 SUB JUMPDEST PUSH2 0x165F PUSH1 0x0 DUP7 DUP4 DUP1 PUSH1 0x1 ADD SWAP5 POP DUP7 PUSH2 0x14A6 JUMP JUMPDEST PUSH2 0x1673 JUMPI PUSH2 0x1673 PUSH4 0x68D2BF6B PUSH1 0xE1 SHL PUSH2 0x12C4 JUMP JUMPDEST DUP2 DUP2 LT PUSH2 0x164C JUMPI DUP2 PUSH1 0x0 SLOAD EQ PUSH2 0x168D JUMPI PUSH2 0x168D PUSH1 0x0 PUSH2 0x12C4 JUMP JUMPDEST POP POP POP POP POP JUMP JUMPDEST PUSH1 0x0 DUP1 PUSH19 0x184F03E93FF9F4DAA797ED6E38ED64BF6A1F01 PUSH1 0x40 SHL DUP4 LT PUSH2 0x16D3 JUMPI PUSH19 0x184F03E93FF9F4DAA797ED6E38ED64BF6A1F01 PUSH1 0x40 SHL DUP4 DIV SWAP3 POP PUSH1 0x40 ADD JUMPDEST PUSH14 0x4EE2D6D415B85ACEF8100000000 DUP4 LT PUSH2 0x16FF JUMPI PUSH14 0x4EE2D6D415B85ACEF8100000000 DUP4 DIV SWAP3 POP PUSH1 0x20 ADD JUMPDEST PUSH7 0x2386F26FC10000 DUP4 LT PUSH2 0x171D JUMPI PUSH7 0x2386F26FC10000 DUP4 DIV SWAP3 POP PUSH1 0x10 ADD JUMPDEST PUSH4 0x5F5E100 DUP4 LT PUSH2 0x1735 JUMPI PUSH4 0x5F5E100 DUP4 DIV SWAP3 POP PUSH1 0x8 ADD JUMPDEST PUSH2 0x2710 DUP4 LT PUSH2 0x1749 JUMPI PUSH2 0x2710 DUP4 DIV SWAP3 POP PUSH1 0x4 ADD JUMPDEST PUSH1 0x64 DUP4 LT PUSH2 0x175B JUMPI PUSH1 0x64 DUP4 DIV SWAP3 POP PUSH1 0x2 ADD JUMPDEST PUSH1 0xA DUP4 LT PUSH2 0x6A2 JUMPI PUSH1 0x1 ADD SWAP3 SWAP2 POP POP JUMP JUMPDEST PUSH1 0x0 DUP1 SLOAD SWAP1 DUP3 SWAP1 SUB PUSH2 0x1788 JUMPI PUSH2 0x1788 PUSH4 0xB562E8DD PUSH1 0xE0 SHL PUSH2 0x12C4 JUMP JUMPDEST PUSH1 0x0 DUP2 DUP2 MSTORE PUSH1 0x4 PUSH1 0x20 SWAP1 DUP2 MSTORE PUSH1 0x40 DUP1 DUP4 KECCAK256 PUSH1 0x1 PUSH1 0x1 PUSH1 0xA0 SHL SUB DUP8 AND TIMESTAMP PUSH1 0xA0 SHL PUSH1 0x1 DUP9 EQ PUSH1 0xE1 SHL OR DUP2 OR SWAP1 SWAP2 SSTORE DUP1 DUP5 MSTORE PUSH1 0x5 SWAP1 SWAP3 MSTORE DUP3 KECCAK256 DUP1 SLOAD PUSH9 0x10000000000000001 DUP7 MUL ADD SWAP1 SSTORE SWAP1 DUP2 SWAP1 SUB PUSH2 0x17E6 JUMPI PUSH2 0x17E6 PUSH3 0x2E0763 PUSH1 0xE8 SHL PUSH2 0x12C4 JUMP JUMPDEST DUP2 DUP4 ADD DUP3 JUMPDEST DUP1 DUP4 PUSH1 0x0 PUSH32 0xDDF252AD1BE2C89B69C2B068FC378DAA952BA7F163C4A11628F55A4DF523B3EF PUSH1 0x0 DUP1 LOG4 DUP2 DUP2 PUSH1 0x1 ADD SWAP2 POP DUP2 SUB PUSH2 0x17EB JUMPI POP PUSH1 0x0 SSTORE POP POP POP POP JUMP JUMPDEST PUSH1 0x1 PUSH1 0x1 PUSH1 0xE0 SHL SUB NOT DUP2 AND DUP2 EQ PUSH2 0xF80 JUMPI PUSH1 0x0 DUP1 REVERT JUMPDEST PUSH1 0x0 PUSH1 0x20 DUP3 DUP5 SUB SLT ISZERO PUSH2 0x1853 JUMPI PUSH1 0x0 DUP1 REVERT JUMPDEST DUP2 CALLDATALOAD PUSH2 0x1118 DUP2 PUSH2 0x182B JUMP JUMPDEST PUSH1 0x0 JUMPDEST DUP4 DUP2 LT ISZERO PUSH2 0x1879 JUMPI DUP2 DUP2 ADD MLOAD DUP4 DUP3 ADD MSTORE PUSH1 0x20 ADD PUSH2 0x1861 JUMP JUMPDEST POP POP PUSH1 0x0 SWAP2 ADD MSTORE JUMP JUMPDEST PUSH1 0x0 DUP2 MLOAD DUP1 DUP5 MSTORE PUSH2 0x189A DUP2 PUSH1 0x20 DUP7 ADD PUSH1 0x20 DUP7 ADD PUSH2 0x185E JUMP JUMPDEST PUSH1 0x1F ADD PUSH1 0x1F NOT AND SWAP3 SWAP1 SWAP3 ADD PUSH1 0x20 ADD SWAP3 SWAP2 POP POP JUMP JUMPDEST PUSH1 0x20 DUP2 MSTORE PUSH1 0x0 PUSH2 0x1118 PUSH1 0x20 DUP4 ADD DUP5 PUSH2 0x1882 JUMP JUMPDEST PUSH1 0x0 PUSH1 0x20 DUP3 DUP5 SUB SLT ISZERO PUSH2 0x18D3 JUMPI PUSH1 0x0 DUP1 REVERT JUMPDEST POP CALLDATALOAD SWAP2 SWAP1 POP JUMP JUMPDEST DUP1 CALLDATALOAD PUSH1 0x1 PUSH1 0x1 PUSH1 0xA0 SHL SUB DUP2 AND DUP2 EQ PUSH2 0x1425 JUMPI PUSH1 0x0 DUP1 REVERT JUMPDEST PUSH1 0x0 DUP1 PUSH1 0x40 DUP4 DUP6 SUB SLT ISZERO PUSH2 0x1904 JUMPI PUSH1 0x0 DUP1 REVERT JUMPDEST PUSH2 0x190D DUP4 PUSH2 0x18DA JUMP JUMPDEST SWAP5 PUSH1 0x20 SWAP4 SWAP1 SWAP4 ADD CALLDATALOAD SWAP4 POP POP POP JUMP JUMPDEST PUSH1 0x0 PUSH1 0x20 DUP3 DUP5 SUB SLT ISZERO PUSH2 0x192D JUMPI PUSH1 0x0 DUP1 REVERT JUMPDEST PUSH2 0x1118 DUP3 PUSH2 0x18DA JUMP JUMPDEST PUSH1 0x0 DUP1 PUSH1 0x0 PUSH1 0x60 DUP5 DUP7 SUB SLT ISZERO PUSH2 0x194B JUMPI PUSH1 0x0 DUP1 REVERT JUMPDEST PUSH2 0x1954 DUP5 PUSH2 0x18DA JUMP JUMPDEST SWAP3 POP PUSH2 0x1962 PUSH1 0x20 DUP6 ADD PUSH2 0x18DA JUMP JUMPDEST SWAP2 POP PUSH1 0x40 DUP5 ADD CALLDATALOAD SWAP1 POP SWAP3 POP SWAP3 POP SWAP3 JUMP JUMPDEST PUSH4 0x4E487B71 PUSH1 0xE0 SHL PUSH1 0x0 MSTORE PUSH1 0x41 PUSH1 0x4 MSTORE PUSH1 0x24 PUSH1 0x0 REVERT JUMPDEST PUSH1 0x0 PUSH8 0xFFFFFFFFFFFFFFFF DUP1 DUP5 GT ISZERO PUSH2 0x19A3 JUMPI PUSH2 0x19A3 PUSH2 0x1972 JUMP JUMPDEST PUSH1 0x40 MLOAD PUSH1 0x1F DUP6 ADD PUSH1 0x1F NOT SWAP1 DUP2 AND PUSH1 0x3F ADD AND DUP2 ADD SWAP1 DUP3 DUP3 GT DUP2 DUP4 LT OR ISZERO PUSH2 0x19CB JUMPI PUSH2 0x19CB PUSH2 0x1972 JUMP JUMPDEST DUP2 PUSH1 0x40 MSTORE DUP1 SWAP4 POP DUP6 DUP2 MSTORE DUP7 DUP7 DUP7 ADD GT ISZERO PUSH2 0x19E4 JUMPI PUSH1 0x0 DUP1 REVERT JUMPDEST DUP6 DUP6 PUSH1 0x20 DUP4 ADD CALLDATACOPY PUSH1 0x0 PUSH1 0x20 DUP8 DUP4 ADD ADD MSTORE POP POP POP SWAP4 SWAP3 POP POP POP JUMP JUMPDEST PUSH1 0x0 PUSH1 0x20 DUP3 DUP5 SUB SLT ISZERO PUSH2 0x1A10 JUMPI PUSH1 0x0 DUP1 REVERT JUMPDEST DUP2 CALLDATALOAD PUSH8 0xFFFFFFFFFFFFFFFF DUP2 GT ISZERO PUSH2 0x1A27 JUMPI PUSH1 0x0 DUP1 REVERT JUMPDEST DUP3 ADD PUSH1 0x1F DUP2 ADD DUP5 SGT PUSH2 0x1A38 JUMPI PUSH1 0x0 DUP1 REVERT JUMPDEST PUSH2 0x1581 DUP5 DUP3 CALLDATALOAD PUSH1 0x20 DUP5 ADD PUSH2 0x1988 JUMP JUMPDEST DUP1 CALLDATALOAD DUP1 ISZERO ISZERO DUP2 EQ PUSH2 0x1425 JUMPI PUSH1 0x0 DUP1 REVERT JUMPDEST PUSH1 0x0 DUP1 PUSH1 0x40 DUP4 DUP6 SUB SLT ISZERO PUSH2 0x1A6A JUMPI PUSH1 0x0 DUP1 REVERT JUMPDEST PUSH2 0x1A73 DUP4 PUSH2 0x18DA JUMP JUMPDEST SWAP2 POP PUSH2 0x1A81 PUSH1 0x20 DUP5 ADD PUSH2 0x1A47 JUMP JUMPDEST SWAP1 POP SWAP3 POP SWAP3 SWAP1 POP JUMP JUMPDEST PUSH1 0x0 DUP1 PUSH1 0x0 DUP1 PUSH1 0x80 DUP6 DUP8 SUB SLT ISZERO PUSH2 0x1AA0 JUMPI PUSH1 0x0 DUP1 REVERT JUMPDEST PUSH2 0x1AA9 DUP6 PUSH2 0x18DA JUMP JUMPDEST SWAP4 POP PUSH2 0x1AB7 PUSH1 0x20 DUP7 ADD PUSH2 0x18DA JUMP JUMPDEST SWAP3 POP PUSH1 0x40 DUP6 ADD CALLDATALOAD SWAP2 POP PUSH1 0x60 DUP6 ADD CALLDATALOAD PUSH8 0xFFFFFFFFFFFFFFFF DUP2 GT ISZERO PUSH2 0x1ADA JUMPI PUSH1 0x0 DUP1 REVERT JUMPDEST DUP6 ADD PUSH1 0x1F DUP2 ADD DUP8 SGT PUSH2 0x1AEB JUMPI PUSH1 0x0 DUP1 REVERT JUMPDEST PUSH2 0x1AFA DUP8 DUP3 CALLDATALOAD PUSH1 0x20 DUP5 ADD PUSH2 0x1988 JUMP JUMPDEST SWAP2 POP POP SWAP3 SWAP6 SWAP2 SWAP5 POP SWAP3 POP JUMP JUMPDEST PUSH1 0x0 PUSH1 0x20 DUP3 DUP5 SUB SLT ISZERO PUSH2 0x1B18 JUMPI PUSH1 0x0 DUP1 REVERT JUMPDEST PUSH2 0x1118 DUP3 PUSH2 0x1A47 JUMP JUMPDEST PUSH1 0x0 PUSH1 0x20 DUP3 DUP5 SUB SLT ISZERO PUSH2 0x1B33 JUMPI PUSH1 0x0 DUP1 REVERT JUMPDEST DUP2 CALLDATALOAD PUSH2 0xFFFF DUP2 AND DUP2 EQ PUSH2 0x1118 JUMPI PUSH1 0x0 DUP1 REVERT JUMPDEST PUSH1 0x0 DUP1 PUSH1 0x40 DUP4 DUP6 SUB SLT ISZERO PUSH2 0x1B58 JUMPI PUSH1 0x0 DUP1 REVERT JUMPDEST PUSH2 0x1B61 DUP4 PUSH2 0x18DA JUMP JUMPDEST SWAP2 POP PUSH2 0x1A81 PUSH1 0x20 DUP5 ADD PUSH2 0x18DA JUMP JUMPDEST PUSH1 0x1 DUP2 DUP2 SHR SWAP1 DUP3 AND DUP1 PUSH2 0x1B83 JUMPI PUSH1 0x7F DUP3 AND SWAP2 POP JUMPDEST PUSH1 0x20 DUP3 LT DUP2 SUB PUSH2 0x1BA3 JUMPI PUSH4 0x4E487B71 PUSH1 0xE0 SHL PUSH1 0x0 MSTORE PUSH1 0x22 PUSH1 0x4 MSTORE PUSH1 0x24 PUSH1 0x0 REVERT JUMPDEST POP SWAP2 SWAP1 POP JUMP JUMPDEST PUSH1 0x1F DUP3 GT ISZERO PUSH2 0x9BD JUMPI PUSH1 0x0 DUP2 DUP2 MSTORE PUSH1 0x20 DUP2 KECCAK256 PUSH1 0x1F DUP6 ADD PUSH1 0x5 SHR DUP2 ADD PUSH1 0x20 DUP7 LT ISZERO PUSH2 0x1BD0 JUMPI POP DUP1 JUMPDEST PUSH1 0x1F DUP6 ADD PUSH1 0x5 SHR DUP3 ADD SWAP2 POP JUMPDEST DUP2 DUP2 LT ISZERO PUSH2 0x1BEF JUMPI DUP3 DUP2 SSTORE PUSH1 0x1 ADD PUSH2 0x1BDC JUMP JUMPDEST POP POP POP POP POP POP JUMP JUMPDEST DUP2 MLOAD PUSH8 0xFFFFFFFFFFFFFFFF DUP2 GT ISZERO PUSH2 0x1C11 JUMPI PUSH2 0x1C11 PUSH2 0x1972 JUMP JUMPDEST PUSH2 0x1C25 DUP2 PUSH2 0x1C1F DUP5 SLOAD PUSH2 0x1B6F JUMP JUMPDEST DUP5 PUSH2 0x1BA9 JUMP JUMPDEST PUSH1 0x20 DUP1 PUSH1 0x1F DUP4 GT PUSH1 0x1 DUP2 EQ PUSH2 0x1C5A JUMPI PUSH1 0x0 DUP5 ISZERO PUSH2 0x1C42 JUMPI POP DUP6 DUP4 ADD MLOAD JUMPDEST PUSH1 0x0 NOT PUSH1 0x3 DUP7 SWAP1 SHL SHR NOT AND PUSH1 0x1 DUP6 SWAP1 SHL OR DUP6 SSTORE PUSH2 0x1BEF JUMP JUMPDEST PUSH1 0x0 DUP6 DUP2 MSTORE PUSH1 0x20 DUP2 KECCAK256 PUSH1 0x1F NOT DUP7 AND SWAP2 JUMPDEST DUP3 DUP2 LT ISZERO PUSH2 0x1C89 JUMPI DUP9 DUP7 ADD MLOAD DUP3 SSTORE SWAP5 DUP5 ADD SWAP5 PUSH1 0x1 SWAP1 SWAP2 ADD SWAP1 DUP5 ADD PUSH2 0x1C6A JUMP JUMPDEST POP DUP6 DUP3 LT ISZERO PUSH2 0x1CA7 JUMPI DUP8 DUP6 ADD MLOAD PUSH1 0x0 NOT PUSH1 0x3 DUP9 SWAP1 SHL PUSH1 0xF8 AND SHR NOT AND DUP2 SSTORE JUMPDEST POP POP POP POP POP PUSH1 0x1 SWAP1 DUP2 SHL ADD SWAP1 SSTORE POP JUMP JUMPDEST PUSH1 0x0 PUSH1 0x20 DUP3 DUP5 SUB SLT ISZERO PUSH2 0x1CC9 JUMPI PUSH1 0x0 DUP1 REVERT JUMPDEST POP MLOAD SWAP2 SWAP1 POP JUMP JUMPDEST PUSH1 0x20 DUP1 DUP3 MSTORE PUSH1 0x26 SWAP1 DUP3 ADD MSTORE PUSH32 0x4F6E6C79204D3420616E64204F47414320486F6C64657273204D6179204D696E PUSH1 0x40 DUP3 ADD MSTORE PUSH6 0x3A102737BB97 PUSH1 0xD1 SHL PUSH1 0x60 DUP3 ADD MSTORE PUSH1 0x80 ADD SWAP1 JUMP JUMPDEST PUSH1 0x20 DUP1 DUP3 MSTORE PUSH1 0x24 SWAP1 DUP3 ADD MSTORE PUSH32 0x4D696E7420616D6F756E742073686F756C642062652067726561746572207468 PUSH1 0x40 DUP3 ADD MSTORE PUSH4 0x616E203 PUSH1 0xE4 SHL PUSH1 0x60 DUP3 ADD MSTORE PUSH1 0x80 ADD SWAP1 JUMP JUMPDEST PUSH1 0x20 DUP1 DUP3 MSTORE PUSH1 0x27 SWAP1 DUP3 ADD MSTORE PUSH32 0x536F72727920796F752063616E74206D696E74207468697320616D6F756E7420 PUSH1 0x40 DUP3 ADD MSTORE PUSH7 0x6174206F6E6365 PUSH1 0xC8 SHL PUSH1 0x60 DUP3 ADD MSTORE PUSH1 0x80 ADD SWAP1 JUMP JUMPDEST PUSH4 0x4E487B71 PUSH1 0xE0 SHL PUSH1 0x0 MSTORE PUSH1 0x11 PUSH1 0x4 MSTORE PUSH1 0x24 PUSH1 0x0 REVERT JUMPDEST DUP1 DUP3 ADD DUP1 DUP3 GT ISZERO PUSH2 0x6A2 JUMPI PUSH2 0x6A2 PUSH2 0x1DA1 JUMP JUMPDEST DUP1 DUP3 MUL DUP2 ISZERO DUP3 DUP3 DIV DUP5 EQ OR PUSH2 0x6A2 JUMPI PUSH2 0x6A2 PUSH2 0x1DA1 JUMP JUMPDEST PUSH1 0x0 DUP4 MLOAD PUSH2 0x1DF3 DUP2 DUP5 PUSH1 0x20 DUP9 ADD PUSH2 0x185E JUMP JUMPDEST DUP4 MLOAD SWAP1 DUP4 ADD SWAP1 PUSH2 0x1E07 DUP2 DUP4 PUSH1 0x20 DUP9 ADD PUSH2 0x185E JUMP JUMPDEST ADD SWAP5 SWAP4 POP POP POP POP JUMP JUMPDEST PUSH1 0x1 PUSH1 0x1 PUSH1 0xA0 SHL SUB DUP6 DUP2 AND DUP3 MSTORE DUP5 AND PUSH1 0x20 DUP3 ADD MSTORE PUSH1 0x40 DUP2 ADD DUP4 SWAP1 MSTORE PUSH1 0x80 PUSH1 0x60 DUP3 ADD DUP2 SWAP1 MSTORE PUSH1 0x0 SWAP1 PUSH2 0x1E43 SWAP1 DUP4 ADD DUP5 PUSH2 0x1882 JUMP JUMPDEST SWAP7 SWAP6 POP POP POP POP POP POP JUMP JUMPDEST PUSH1 0x0 PUSH1 0x20 DUP3 DUP5 SUB SLT ISZERO PUSH2 0x1E5F JUMPI PUSH1 0x0 DUP1 REVERT JUMPDEST DUP2 MLOAD PUSH2 0x1118 DUP2 PUSH2 0x182B JUMP INVALID LOG2 PUSH5 0x6970667358 0x22 SLT KECCAK256 PUSH8 0xD74EB36CAC6CAE1E 0xD7 0xE9 SWAP9 PUSH8 0x8198AD7BE709722B 0xB3 0xE3 PUSH15 0xAC1969C7A0440A864736F6C634300 ADDMOD SLT STOP CALLER "
		},
		"gasEstimates": {
			"creation": {
				"codeDepositCost": "1568000",
				"executionCost": "infinite",
				"totalCost": "infinite"
			},
			"external": {
				"approve(address,uint256)": "infinite",
				"balanceOf(address)": "2728",
				"baseApiURI()": "infinite",
				"cost()": "2363",
				"crossmint(address,uint256)": "infinite",
				"crossmintAddress()": "2382",
				"getApproved(uint256)": "6948",
				"isApprovedForAll(address,address)": "infinite",
				"maxMintAmountPerTransaction()": "2446",
				"maxSupply()": "2384",
				"mint(uint256)": "infinite",
				"mintExternal(address,uint256)": "infinite",
				"name()": "infinite",
				"numberMinted(address)": "2630",
				"owner()": "2421",
				"ownerOf(uint256)": "infinite",
				"paused()": "2377",
				"renounceOwnership()": "infinite",
				"safeTransferFrom(address,address,uint256)": "infinite",
				"safeTransferFrom(address,address,uint256,bytes)": "infinite",
				"saleOn()": "2378",
				"setApprovalForAll(address,bool)": "infinite",
				"setBaseURI(string)": "infinite",
				"setCost(uint256)": "24556",
				"setCrossmintAddress(address)": "26780",
				"setExternalContract(address)": "26781",
				"setMaxSupply(uint256)": "24599",
				"setPauseStatus(bool)": "26752",
				"setSaleStatus(bool)": "26818",
				"setmaxMintAmountPerTransaction(uint16)": "26730",
				"supportsInterface(bytes4)": "557",
				"symbol()": "infinite",
				"tokenURI(uint256)": "infinite",
				"totalSupply()": "4488",
				"transferFrom(address,address,uint256)": "infinite",
				"transferOwnership(address)": "28446"
			},
			"internal": {
				"_baseURI()": "infinite"
			}
		},
		"methodIdentifiers": {
			"approve(address,uint256)": "095ea7b3",
			"balanceOf(address)": "70a08231",
			"baseApiURI()": "41827f13",
			"cost()": "13faede6",
			"crossmint(address,uint256)": "58891a37",
			"crossmintAddress()": "5b2a55e4",
			"getApproved(uint256)": "081812fc",
			"isApprovedForAll(address,address)": "e985e9c5",
			"maxMintAmountPerTransaction()": "bbb89744",
			"maxSupply()": "d5abeb01",
			"mint(uint256)": "a0712d68",
			"mintExternal(address,uint256)": "f4da1846",
			"name()": "06fdde03",
			"numberMinted(address)": "dc33e681",
			"owner()": "8da5cb5b",
			"ownerOf(uint256)": "6352211e",
			"paused()": "5c975abb",
			"renounceOwnership()": "715018a6",
			"safeTransferFrom(address,address,uint256)": "42842e0e",
			"safeTransferFrom(address,address,uint256,bytes)": "b88d4fde",
			"saleOn()": "773ef1cf",
			"setApprovalForAll(address,bool)": "a22cb465",
			"setBaseURI(string)": "55f804b3",
			"setCost(uint256)": "44a0d68a",
			"setCrossmintAddress(address)": "99755624",
			"setExternalContract(address)": "09e7fe1b",
			"setMaxSupply(uint256)": "6f8b44b0",
			"setPauseStatus(bool)": "c38bb537",
			"setSaleStatus(bool)": "d897833e",
			"setmaxMintAmountPerTransaction(uint16)": "e97800cb",
			"supportsInterface(bytes4)": "01ffc9a7",
			"symbol()": "95d89b41",
			"tokenURI(uint256)": "c87b56dd",
			"totalSupply()": "18160ddd",
			"transferFrom(address,address,uint256)": "23b872dd",
			"transferOwnership(address)": "f2fde38b"
		}
	},
	"abi": [
		{
			"inputs": [
				{
					"internalType": "string",
					"name": "_baseUrl",
					"type": "string"
				}
			],
			"stateMutability": "nonpayable",
			"type": "constructor"
		},
		{
			"inputs": [],
			"name": "ApprovalCallerNotOwnerNorApproved",
			"type": "error"
		},
		{
			"inputs": [],
			"name": "ApprovalQueryForNonexistentToken",
			"type": "error"
		},
		{
			"inputs": [],
			"name": "BalanceQueryForZeroAddress",
			"type": "error"
		},
		{
			"inputs": [],
			"name": "MintERC2309QuantityExceedsLimit",
			"type": "error"
		},
		{
			"inputs": [],
			"name": "MintToZeroAddress",
			"type": "error"
		},
		{
			"inputs": [],
			"name": "MintZeroQuantity",
			"type": "error"
		},
		{
			"inputs": [],
			"name": "OwnerQueryForNonexistentToken",
			"type": "error"
		},
		{
			"inputs": [],
			"name": "OwnershipNotInitializedForExtraData",
			"type": "error"
		},
		{
			"inputs": [],
			"name": "TransferCallerNotOwnerNorApproved",
			"type": "error"
		},
		{
			"inputs": [],
			"name": "TransferFromIncorrectOwner",
			"type": "error"
		},
		{
			"inputs": [],
			"name": "TransferToNonERC721ReceiverImplementer",
			"type": "error"
		},
		{
			"inputs": [],
			"name": "TransferToZeroAddress",
			"type": "error"
		},
		{
			"inputs": [],
			"name": "URIQueryForNonexistentToken",
			"type": "error"
		},
		{
			"anonymous": false,
			"inputs": [
				{
					"indexed": true,
					"internalType": "address",
					"name": "owner",
					"type": "address"
				},
				{
					"indexed": true,
					"internalType": "address",
					"name": "approved",
					"type": "address"
				},
				{
					"indexed": true,
					"internalType": "uint256",
					"name": "tokenId",
					"type": "uint256"
				}
			],
			"name": "Approval",
			"type": "event"
		},
		{
			"anonymous": false,
			"inputs": [
				{
					"indexed": true,
					"internalType": "address",
					"name": "owner",
					"type": "address"
				},
				{
					"indexed": true,
					"internalType": "address",
					"name": "operator",
					"type": "address"
				},
				{
					"indexed": false,
					"internalType": "bool",
					"name": "approved",
					"type": "bool"
				}
			],
			"name": "ApprovalForAll",
			"type": "event"
		},
		{
			"anonymous": false,
			"inputs": [
				{
					"indexed": true,
					"internalType": "uint256",
					"name": "fromTokenId",
					"type": "uint256"
				},
				{
					"indexed": false,
					"internalType": "uint256",
					"name": "toTokenId",
					"type": "uint256"
				},
				{
					"indexed": true,
					"internalType": "address",
					"name": "from",
					"type": "address"
				},
				{
					"indexed": true,
					"internalType": "address",
					"name": "to",
					"type": "address"
				}
			],
			"name": "ConsecutiveTransfer",
			"type": "event"
		},
		{
			"anonymous": false,
			"inputs": [
				{
					"indexed": true,
					"internalType": "address",
					"name": "previousOwner",
					"type": "address"
				},
				{
					"indexed": true,
					"internalType": "address",
					"name": "newOwner",
					"type": "address"
				}
			],
			"name": "OwnershipTransferred",
			"type": "event"
		},
		{
			"anonymous": false,
			"inputs": [
				{
					"indexed": true,
					"internalType": "address",
					"name": "from",
					"type": "address"
				},
				{
					"indexed": true,
					"internalType": "address",
					"name": "to",
					"type": "address"
				},
				{
					"indexed": true,
					"internalType": "uint256",
					"name": "tokenId",
					"type": "uint256"
				}
			],
			"name": "Transfer",
			"type": "event"
		},
		{
			"inputs": [
				{
					"internalType": "address",
					"name": "to",
					"type": "address"
				},
				{
					"internalType": "uint256",
					"name": "tokenId",
					"type": "uint256"
				}
			],
			"name": "approve",
			"outputs": [],
			"stateMutability": "payable",
			"type": "function"
		},
		{
			"inputs": [
				{
					"internalType": "address",
					"name": "owner",
					"type": "address"
				}
			],
			"name": "balanceOf",
			"outputs": [
				{
					"internalType": "uint256",
					"name": "",
					"type": "uint256"
				}
			],
			"stateMutability": "view",
			"type": "function"
		},
		{
			"inputs": [],
			"name": "baseApiURI",
			"outputs": [
				{
					"internalType": "string",
					"name": "",
					"type": "string"
				}
			],
			"stateMutability": "view",
			"type": "function"
		},
		{
			"inputs": [],
			"name": "cost",
			"outputs": [
				{
					"internalType": "uint256",
					"name": "",
					"type": "uint256"
				}
			],
			"stateMutability": "view",
			"type": "function"
		},
		{
			"inputs": [
				{
					"internalType": "address",
					"name": "_to",
					"type": "address"
				},
				{
					"internalType": "uint256",
					"name": "_mintAmount",
					"type": "uint256"
				}
			],
			"name": "crossmint",
			"outputs": [],
			"stateMutability": "payable",
			"type": "function"
		},
		{
			"inputs": [],
			"name": "crossmintAddress",
			"outputs": [
				{
					"internalType": "address",
					"name": "",
					"type": "address"
				}
			],
			"stateMutability": "view",
			"type": "function"
		},
		{
			"inputs": [
				{
					"internalType": "uint256",
					"name": "tokenId",
					"type": "uint256"
				}
			],
			"name": "getApproved",
			"outputs": [
				{
					"internalType": "address",
					"name": "",
					"type": "address"
				}
			],
			"stateMutability": "view",
			"type": "function"
		},
		{
			"inputs": [
				{
					"internalType": "address",
					"name": "owner",
					"type": "address"
				},
				{
					"internalType": "address",
					"name": "operator",
					"type": "address"
				}
			],
			"name": "isApprovedForAll",
			"outputs": [
				{
					"internalType": "bool",
					"name": "",
					"type": "bool"
				}
			],
			"stateMutability": "view",
			"type": "function"
		},
		{
			"inputs": [],
			"name": "maxMintAmountPerTransaction",
			"outputs": [
				{
					"internalType": "uint16",
					"name": "",
					"type": "uint16"
				}
			],
			"stateMutability": "view",
			"type": "function"
		},
		{
			"inputs": [],
			"name": "maxSupply",
			"outputs": [
				{
					"internalType": "uint256",
					"name": "",
					"type": "uint256"
				}
			],
			"stateMutability": "view",
			"type": "function"
		},
		{
			"inputs": [
				{
					"internalType": "uint256",
					"name": "_mintAmount",
					"type": "uint256"
				}
			],
			"name": "mint",
			"outputs": [],
			"stateMutability": "payable",
			"type": "function"
		},
		{
			"inputs": [
				{
					"internalType": "address",
					"name": "_address",
					"type": "address"
				},
				{
					"internalType": "uint256",
					"name": "_mintAmount",
					"type": "uint256"
				}
			],
			"name": "mintExternal",
			"outputs": [],
			"stateMutability": "nonpayable",
			"type": "function"
		},
		{
			"inputs": [],
			"name": "name",
			"outputs": [
				{
					"internalType": "string",
					"name": "",
					"type": "string"
				}
			],
			"stateMutability": "view",
			"type": "function"
		},
		{
			"inputs": [
				{
					"internalType": "address",
					"name": "owner",
					"type": "address"
				}
			],
			"name": "numberMinted",
			"outputs": [
				{
					"internalType": "uint256",
					"name": "",
					"type": "uint256"
				}
			],
			"stateMutability": "view",
			"type": "function"
		},
		{
			"inputs": [],
			"name": "owner",
			"outputs": [
				{
					"internalType": "address",
					"name": "",
					"type": "address"
				}
			],
			"stateMutability": "view",
			"type": "function"
		},
		{
			"inputs": [
				{
					"internalType": "uint256",
					"name": "tokenId",
					"type": "uint256"
				}
			],
			"name": "ownerOf",
			"outputs": [
				{
					"internalType": "address",
					"name": "",
					"type": "address"
				}
			],
			"stateMutability": "view",
			"type": "function"
		},
		{
			"inputs": [],
			"name": "paused",
			"outputs": [
				{
					"internalType": "bool",
					"name": "",
					"type": "bool"
				}
			],
			"stateMutability": "view",
			"type": "function"
		},
		{
			"inputs": [],
			"name": "renounceOwnership",
			"outputs": [],
			"stateMutability": "nonpayable",
			"type": "function"
		},
		{
			"inputs": [
				{
					"internalType": "address",
					"name": "from",
					"type": "address"
				},
				{
					"internalType": "address",
					"name": "to",
					"type": "address"
				},
				{
					"internalType": "uint256",
					"name": "tokenId",
					"type": "uint256"
				}
			],
			"name": "safeTransferFrom",
			"outputs": [],
			"stateMutability": "payable",
			"type": "function"
		},
		{
			"inputs": [
				{
					"internalType": "address",
					"name": "from",
					"type": "address"
				},
				{
					"internalType": "address",
					"name": "to",
					"type": "address"
				},
				{
					"internalType": "uint256",
					"name": "tokenId",
					"type": "uint256"
				},
				{
					"internalType": "bytes",
					"name": "_data",
					"type": "bytes"
				}
			],
			"name": "safeTransferFrom",
			"outputs": [],
			"stateMutability": "payable",
			"type": "function"
		},
		{
			"inputs": [],
			"name": "saleOn",
			"outputs": [
				{
					"internalType": "bool",
					"name": "",
					"type": "bool"
				}
			],
			"stateMutability": "view",
			"type": "function"
		},
		{
			"inputs": [
				{
					"internalType": "address",
					"name": "operator",
					"type": "address"
				},
				{
					"internalType": "bool",
					"name": "approved",
					"type": "bool"
				}
			],
			"name": "setApprovalForAll",
			"outputs": [],
			"stateMutability": "nonpayable",
			"type": "function"
		},
		{
			"inputs": [
				{
					"internalType": "string",
					"name": "_newBaseURI",
					"type": "string"
				}
			],
			"name": "setBaseURI",
			"outputs": [],
			"stateMutability": "nonpayable",
			"type": "function"
		},
		{
			"inputs": [
				{
					"internalType": "uint256",
					"name": "_newCost",
					"type": "uint256"
				}
			],
			"name": "setCost",
			"outputs": [],
			"stateMutability": "nonpayable",
			"type": "function"
		},
		{
			"inputs": [
				{
					"internalType": "address",
					"name": "_crossmintAddress",
					"type": "address"
				}
			],
			"name": "setCrossmintAddress",
			"outputs": [],
			"stateMutability": "nonpayable",
			"type": "function"
		},
		{
			"inputs": [
				{
					"internalType": "address",
					"name": "_bAddress",
					"type": "address"
				}
			],
			"name": "setExternalContract",
			"outputs": [],
			"stateMutability": "nonpayable",
			"type": "function"
		},
		{
			"inputs": [
				{
					"internalType": "uint256",
					"name": "_supply",
					"type": "uint256"
				}
			],
			"name": "setMaxSupply",
			"outputs": [],
			"stateMutability": "nonpayable",
			"type": "function"
		},
		{
			"inputs": [
				{
					"internalType": "bool",
					"name": "_val",
					"type": "bool"
				}
			],
			"name": "setPauseStatus",
			"outputs": [],
			"stateMutability": "nonpayable",
			"type": "function"
		},
		{
			"inputs": [
				{
					"internalType": "bool",
					"name": "_val",
					"type": "bool"
				}
			],
			"name": "setSaleStatus",
			"outputs": [],
			"stateMutability": "nonpayable",
			"type": "function"
		},
		{
			"inputs": [
				{
					"internalType": "uint16",
					"name": "_amount",
					"type": "uint16"
				}
			],
			"name": "setmaxMintAmountPerTransaction",
			"outputs": [],
			"stateMutability": "nonpayable",
			"type": "function"
		},
		{
			"inputs": [
				{
					"internalType": "bytes4",
					"name": "interfaceId",
					"type": "bytes4"
				}
			],
			"name": "supportsInterface",
			"outputs": [
				{
					"internalType": "bool",
					"name": "",
					"type": "bool"
				}
			],
			"stateMutability": "view",
			"type": "function"
		},
		{
			"inputs": [],
			"name": "symbol",
			"outputs": [
				{
					"internalType": "string",
					"name": "",
					"type": "string"
				}
			],
			"stateMutability": "view",
			"type": "function"
		},
		{
			"inputs": [
				{
					"internalType": "uint256",
					"name": "tokenId",
					"type": "uint256"
				}
			],
			"name": "tokenURI",
			"outputs": [
				{
					"internalType": "string",
					"name": "",
					"type": "string"
				}
			],
			"stateMutability": "view",
			"type": "function"
		},
		{
			"inputs": [],
			"name": "totalSupply",
			"outputs": [
				{
					"internalType": "uint256",
					"name": "",
					"type": "uint256"
				}
			],
			"stateMutability": "view",
			"type": "function"
		},
		{
			"inputs": [
				{
					"internalType": "address",
					"name": "from",
					"type": "address"
				},
				{
					"internalType": "address",
					"name": "to",
					"type": "address"
				},
				{
					"internalType": "uint256",
					"name": "tokenId",
					"type": "uint256"
				}
			],
			"name": "transferFrom",
			"outputs": [],
			"stateMutability": "payable",
			"type": "function"
		},
		{
			"inputs": [
				{
					"internalType": "address",
					"name": "newOwner",
					"type": "address"
				}
			],
			"name": "transferOwnership",
			"outputs": [],
			"stateMutability": "nonpayable",
			"type": "function"
		}
	]
}